:020000040800F2
:1000000000200020C90E0008C70E0008C50E000819
:10001000C50E0008C50E0008C50E0008000000004F
:10002000000000000000000000000000C70E0008F3
:10003000C70E000800000000C70E000835020008C7
:10004000C50E0008C50E0008C50E0008C50E000844
:10005000C50E0008C50E0008C50E0008C50E000834
:10006000C50E0008C50E0008C50E0008C50E000824
:10007000C50E0008C50E0008C50E0008C50E000814
:10008000C50E0008C50E0008C50E0008C50E000804
:10009000C50E0008C50E0008C50E0008C50E0008F4
:1000A000C50E0008C50E0008C50E0008C50E0008E4
:1000B000C50E0008C50E0008C50E0008C50E0008D4
:1000C000C50E0008C50E0008C50E0008C50E0008C4
:1000D000C50E0008C50E0008C50E0008C50E0008B4
:1000E000C50E0008C50E0008C50E0008C50E0008A4
:1000F000C50E0008C50E0008C50E0008C50E000894
:10010000C50E0008C50E0008C50E0008C50E000883
:10011000C50E0008C50E0008C50E0008C50E000873
:10012000C50E0008C50E0008C50E0008C50E000863
:10013000C50E0008C50E0008C50E0008C50E000853
:10014000C50E0008C50E0008C50E0008950600087B
:10015000012901D100F0A6BA7047000010B5074C84
:100160002378012B02D94FF0FF3010BD00F0C2FA06
:100170000028F8DB0123637010BD00BF18000020C9
:10018000084B10B51C465860FFF7E8FF002804DB59
:10019000054A53680133536010BD6368002BF3D1E7
:1001A00010BD00BFB00600201800002008B5FFF702
:1001B000E7FFA0F120035842584108BD034B1B78CC
:1001C000012B01D800F0A4BA704700BF180000202E
:1001D00038B5134C2368013320D0124D124B2A68D6
:1001E0009A421BD9114B9B6803F1006303F58053BE
:1001F0009A4213D200F046FE00F0C2FE00F0D0FE9C
:1002000000F072FA00F0C4FA00F092FA084B1C6099
:1002100023682A6883F308881047FEE738BD00BFCB
:100220000010000804100008FF0F00080000002064
:1002300008ED00E008B500230C4A52F823101046E0
:1002400021B152F82310013942F823100133042B55
:10025000F2D1074B93F810313BB983682BB90220D8
:1002600000F01EFB014B32229A6008BDB006002050
:1002700018000020024BD860DA68002AFCD17047D1
:10028000B00600202DE9F04F8146C34EC34F002435
:100290008FB034700420BD6800F05EFEFB684FF440
:1002A0007A70584300F050FEDFF80CA300F060FEB7
:1002B00000F06EFEB9F1000F01D0CAF8009086F888
:1002C0001041CAF808404FF0FF38012000F0D8FA7A
:1002D000B9F1000F04D0DAF80030002B00F0CF8124
:1002E0000020FFF74DFF0390039B002BF0DB012064
:1002F00000F0B6FA039B213B102BE6D801A252F87E
:1003000023F000BF4903000857030008B7030008A3
:10031000CB020008CB020008CB020008150400083D
:10032000CB020008AD0400082F0500086505000891
:10033000BD050008CB020008D5050008CB02000867
:10034000FB050008390600080220FFF72FFF0028F0
:1003500040F0728180E14FF47A70FFF711FF041EC4
:10036000C0F27A810220FFF721FF002800F074819B
:10037000601E042800F27081DFE800F00305070921
:100380000E00874804E0854802E0864800E0864881
:100390000421FFF713FF4FE11C24204600F029FA47
:1003A0000EAB43F8140D184604210434FFF706FF82
:1003B0002C2CF2D140E10220FFF7F8FE002800F0DB
:1003C0004B810123022086F8103100F049FA00F039
:1003D00047FD0025284600F0F7F9044620B12846DD
:1003E00000F0F8F90135F5E7022086F8100100F079
:1003F00047FABB689C4207D2204600F0FAF9013068
:1004000040F033810434F4E7002586F81051CAF82F
:10041000085011E13220FFF7B3FE041EC0F21C8128
:1004200014F0030B40F01881BA686319934200F28C
:100430001381B4F5807F00F20F81A3450FD04FF4F4
:100440007A70FFF79DFE0390039B002BC0F204819E
:10045000039A564B0BF803200BF1010BEDE7C82074
:10046000FFF7A4FE002800F0F7802DB94FF0FF330E
:10047000D6F81481C6F8143124F0030404EB050BFC
:100480002C465C4510D0494B20465B1B1959019303
:1004900000F0A9F9204600F0ACF9019B1B599842E5
:1004A00040F0E3800434ECE72546C5E00220FFF786
:1004B0007DFE002800F0D0800024A146BB689C424D
:1004C00031D22CB9B8F1FF3F02D0CDF8248003E03F
:1004D000204600F08EF90990D6F8183293B91A46E2
:1004E000082112F0010F4FEA520016BF304A0246AF
:1004F00042400139F5D12F4941F823200133B3F5AA
:10050000807FECD1002209ABD35C013283EA09037E
:10051000DBB206EB8303D3F81432042A83EA1929E9
:10052000F1D10434CAE70EA840F8289D30E7002432
:100530006420FFF725FE0028C0F28E8009ABE0544E
:100540000134042CF4D10220DDF824B0FFF72EFE94
:10055000002800F08180584600F051F90EAB43F8B6
:10056000240D17E000246420FFF70AFE002873DB47
:1005700009ABE0540134042CF5D10220DDF824B09D
:10058000FFF714FE002867D0584600F063F90EAB61
:1005900043F8200D18462EE018000020000000202F
:1005A000B00F000804000020080000202C010020EB
:1005B0002083B8ED2C020020B00600200220FFF7B7
:1005C000F5FD002848D000F01DF90EAB43F81C0DD6
:1005D0001846DDE60220FFF7E9FD00283CD009A916
:1005E000142000F015F904460EA840F8184D042117
:1005F000FFF7E4FD09A82146CBE64FF47A70FFF738
:10060000D5FD48B3B8F1FF3F0BD11E4B09A81B889D
:100610000221ADF82430FFF7D1FD6420FFF72AFE58
:100620002DE00020414600F0DEF8002000F0E1F867
:100630004045EAD02C4618E03278134B0AB95A7874
:100640001A70104B09A81B880221ADF824304FF016
:100650000009FFF7B3FD38E60C4B09A81B880221FF
:10066000ADF82430FFF7AAFD2FE6094B09A81B8837
:100670000221ADF824302546FFF7A0FD25E60FB096
:10068000BDE8F08FB40F000818000020B60F000876
:10069000B80F0008024B186808B100F00DBC704795
:1006A0002C06002010B50F4C4FF4E131206000F013
:1006B0006DFB2068082100F07DFB2068002100F020
:1006C00082FB20680C2100F08AFB2068002100F0EA
:1006D00080FB2068002100F088FB2068BDE8104006
:1006E00000F089BBC0060020014B186800F088BBF1
:1006F000C006002008B5054B186803689B0602D5A4
:1007000000F092FB08BD4FF0FF3008BDC00600208E
:1007100038B504464518AC4206D0044B14F8011B0A
:10072000186800F072FBF6E738BD00BFC006002075
:1007300010B5144C0021204601224FF4404300F034
:10074000ABF9012220232046002100F0A5F9204624
:1007500004F5823420211C3400F00AFB20464FF0BF
:10076000C05100F06DFB012204230748002100F076
:1007700093F920464FF4003100F062FB034B002256
:100780001A6010BD000C0140000801401810024022
:1007900010B5042000F0F4F9042000F0BFF9084B74
:1007A00000241C60032000F015FA204600F012FA25
:1007B00000F03CFA032000F041FA024B1C6010BD2F
:1007C00004100240081002403B2894BF4FF48060A0
:1007D000002070473B2805D800F500300430800227
:1007E00000F01EB9704700F1006000F5805000F085
:1007F00057BB00F1006000F5805000687047002092
:1008000070470000014B1868704700BF002004E0EB
:10081000F0B585B005460E466A466F460C4B03F1AF
:10082000080E144618685968083303C473452246F5
:10083000F7D118681B792060237100203B5C2BB135
:100840006A1E904202DA33540130F7E705B0F0BD7A
:10085000BA0F000800F10050A0F6180000687047B9
:10086000012802D0022804D0704704484FF4804188
:1008700002E002484FF4004100F07ABA000C014057
:10088000012802D0022804D0704704484FF4804168
:1008900002E002484FF4004100F068BA000C014049
:1008A000012802D0022804D0704704484FF4804148
:1008B00002E002484FF4004100F060BA000C014031
:1008C00010B52C48082100F0B7FA00224FF440433D
:1008D0002948032100F0E0F827484FF4404100F098
:1008E00047FA2448082100F0A7FA2348202100F005
:1008F0003DFA012220232048002100F0CDF81F48B6
:100900004FF0C05100F098FA1A48042100F094FA10
:10091000022204231A48032100F0BEF817484FF4BE
:10092000003100F089FA174B17491A6842F48072B7
:100930001A60164A1068884204BF002111601A68C4
:10094000202122F480721A600B4800F014FA20284B
:1009500014BFC8244FF0FF3400F0CAF90C4801213D
:10096000FFF7F6FB2046FFF78DFC0024FFF730FC75
:10097000F8E700BF18100240000C01401C100240B4
:10098000000801400070004017037119046C00401A
:1009900000440040074B084918680A6800F0350019
:1009A000B2F5007F04D9054B196801F035021043F8
:1009B000704700BF0C200240E0F7FF1F4C200240B0
:1009C00038B504460D4600F065FA114B1868B0F5CD
:1009D000007F04D90F498C4201D90F4B00E00F4B27
:1009E0001A6842F001001860258000F053FA0849A7
:1009F0000B68B3F5007F04D9064A944201D9064832
:100A000000E00648016821F00103036038BD00BF23
:100A1000E0F7FF1FFFFF07085020024010200240B0
:100A200010B5044600F036FA154B1868B0F5007F93
:100A300009D914498C4206D9134B14491A6842F05B
:100A40000200186005E0124B12491A6842F00200D9
:100A500018600C60196841F040021A6000F01AFA40
:100A6000074B1868B0F5007F04D906498C4201D9BC
:100A7000054B00E0064B1A6822F00200186010BD1A
:100A8000E0F7FF1FFFFF07085020024054200240FC
:100A900010200240142002402DE9F0470668456806
:100AA0004FF6E07C002443FA04F717F0010F21D041
:100AB0001FFA84F8B8F1070F04D84FEA8807BFB2CD
:100AC000B14601E06746A9464FF00F0A0AFA07FA55
:100AD00029EA0A0907F1020A02FA0AFA01FA07F7F3
:100AE0004AEA070747EA0907B8F1080F28BF3D4659
:100AF00038BF3E4601340CF1040C102C1FFA8CFC5C
:100B0000D1D106604560BDE8F0870000024B1A684D
:100B100042F080701860704700100240062827D805
:100B2000DFE800F004090E13181D2200114B1868AD
:100B30008101FBD570470F490A681201FBD5704748
:100B40000C4B18688300FBD570470A490A6890036C
:100B5000FBD57047074B18688107FBD570470649DE
:100B60000A689207FBD57047044B18688307FBD5CA
:100B7000704700BF001002402010024024100240C5
:100B800006281FD8DFE800F004060B10151719001F
:100B9000FFF7BCBF0C4B186840F0806011E00A4BB7
:100BA0001A6842F080500CE0074B196841F480301D
:100BB00007E0054B02E0054B00E0054B1A6842F0E8
:100BC00001001860704700BF001002402010024072
:100BD00024100240062822D8DFE800F004090E1392
:100BE000181A1C000E4B196821F0807016E00C4B8F
:100BF000186820F0806011E0094B1A6822F08050DC
:100C00000CE0074B196821F4803007E0044B02E048
:100C1000044B00E0044B1A6822F001001860704792
:100C2000001002402010024024100240024B1A68BB
:100C300022F400201860704700100240032806D0FC
:100C4000052809D1054B1A6822F0040003E0044B83
:100C5000196821F480201860704700BF20100240FE
:100C600000100240034B1A6822F003010843186089
:100C7000704700BF04100240034B1A6822F4701141
:100C800041EA80401860704704100240034B1A6824
:100C900022F4803141EA004018607047041002409D
:100CA000034B1A6822F4404141EA803018607047D3
:100CB00004100240034B1A6822F4605141EAC0203C
:100CC0001860704704100240034B1A6822F4E06178
:100CD00041EA00201860704704100240034B1A6874
:100CE00022F0F00141EA0010186070470410024041
:100CF00008B50420FFF744FF0420FFF70FFF002092
:100D0000FFF7B0FF0020FFF7E9FF0320FFF7C8FF60
:100D10000420FFF7D9FF0020FFF7CCFF0E4B1A6825
:100D200042F480001860012000F090F80A20FFF7DC
:100D3000A3FF0020FFF7AAFFFFF7E8FE0020FFF760
:100D4000EDFE0220FFF78EFF0449054B054A0648D9
:100D50001960026008BD00BF0410024000366E0139
:100D600010000020006CDC021400002001617047BC
:100D7000090401617047806808407047C36821EA30
:100D800003020B4042EA034101617047064A074BE8
:100D900090421B6804BF064B1B6801EB43034900EC
:100DA000B3FBF1F282607047003801401000002070
:100DB00014000020C36808290CBF23F4805343F4B7
:100DC0008053C3607047036923F4405211430161AB
:100DD0007047C36823F4C0621143C1607047C368A1
:100DE00023F00C021143C1607047436923F4407241
:100DF000114341617047C36843F40051C1607047BB
:100E0000C36823F40051C160704738B504460D46ED
:100E100000F00EF820462946BDE8384000F000B842
:100E2000C905CA0D426070474068C105C80D7047CA
:100E300003681B06FCD570470368194301607047BF
:100E4000036823EA0101016070470000034B1A6840
:100E500022F0070108431860704700BF00200240DD
:100E6000064B07491A6842F0800001F18832186089
:100E700043F80C1C43F80C2C704700BF10200240B4
:100E800023016745024B1A6842F0800018607047E2
:100E90001020024008B5FFF77DFDC307FBD408BD55
:100EA00038B50C4689B20546FFF78AFDA81C210C0F
:100EB000BDE83840FFF784BD08B5D0F8D430596A92
:100EC000884708BDFEE770470023154915485A18A2
:100ED000824204D2144C1A595A500433F5E7134B8A
:100EE0009A4203D2002042F8040BF8E7104C114A52
:100EF000944203D254F8041B8847F8E70E4C0F497C
:100F00008C4203D254F8042B9047F8E7FFF7D8FC43
:100F10000B4C0C48844203D254F8043B9847F8E742
:100F20000000002018000020C80F0008C4060020A0
:100F3000C80F0008C80F0008C80F0008C80F000835
:100F4000C80F0008C80F0008024B20F07F4018604F
:100F5000704700BF14E000E0044B00F004001A6882
:100F600022F0040140EA01021A60704710E000E03C
:100F7000024B1A6842F002001860704710E000E06F
:100F8000024B1A6822F002001860704710E000E07F
:100F9000024B1A6842F001001860704710E000E050
:100FA000024B1A6822F001001860704710E000E060
:100FB0000500000012101213121153544D33324623
:100FC000317878782C3F00000A0000000000000013
:100FD00000F000001800000000127A0000127A00F1
:100FE000FFFFFFFFFFFFFFFFFFFFFFFFFFFFFFFF11
:100FF000FFFFFFFFFFFFFFFFFFFFFFFFFFFFFFFF01
:1010000000020020C91A0008555A0008A959000812
:10101000195A0008A9590008E1590008CB1A00081C
:10102000CB1A0008CB1A0008CB1A000815A000083C
:10103000CB1A0008CB1A0008CB1A0008F1A400084C
:10104000CB1A0008CB1A0008CB1A0008CB1A0008EC
:10105000CB1A0008CB1A000891A20008BDA2000814
:10106000E9A2000815A3000841A300083581000883
:10107000498100085D8100087181000885810008B0
:1010800099810008AD810008CB1A0008CB1A00082E
:10109000CB1A0008CB1A0008CB1A00086DA3000871
:1010A000CB1A0008E9840008CB1A0008FD84000868
:1010B000CB1A0008CB1A0008CB1A0008CB1A00087C
:1010C000CB1A0008CB1A0008CB1A0008CB1A00086C
:1010D000CB1A000819880008618A00082D880008CA
:1010E000D5A30008CB1A0008CB1A0008CB1A0008B9
:1010F000CB1A0008CB1A0008CB1A0008CB1A00083C
:10110000CB1A0008CB1A0008CB1A0008CB1A00082B
:10111000CB1A0008CB1A0008CB1A0008CB1A00081B
:10112000CB1A0008CB1A0008CB1A0008CB1A00080B
:10113000CB1A0008CB1A0008CB1A0008CB1A0008FB
:10114000CB1A0008CB1A0008CB1A0008CB1A0008EB
:10115000CB1A0008CB1A0008CB1A0008CB1A0008DB
:10116000F92A0008CD460008DD5700087D7E0008FA
:1011700080F0004002E000BF81F0004142001FBF4C
:101180005FEA410392EA030F7FEA226C7FEA236C55
:101190006AD04FEA1262D2EB1363C1BFD21841404A
:1011A00048404140B8BF5B42192B88BF704710F0E0
:1011B000004F40F4000020F07F4018BF404211F083
:1011C000004F41F4000121F07F4118BF494292EAEB
:1011D000030F3FD0A2F1010241FA03FC10EB0C0017
:1011E000C3F1200301FA03F100F0004302D54942A4
:1011F00060EB4000B0F5000F13D3B0F1807F06D351
:1012000040084FEA310102F10102FE2A51D2B1F148
:10121000004F40EBC25008BF20F0010040EA03003D
:101220007047490040EB000010F4000FA2F10102EA
:10123000EDD1B0FA80FCACF1080CB2EB0C0200FA74
:101240000CF0AABF00EBC25052421843BCBFD040C2
:101250001843704792F0000F81F4000106BF80F43C
:1012600000000132013BB5E74FEA41037FEA226CFF
:1012700018BF7FEA236C21D092EA030F04D092F0CA
:10128000000F08BF0846704790EA010F1CBF0020FE
:10129000704712F07F4F04D1400028BF40F000405B
:1012A000704712F100723CBF00F50000704700F07B
:1012B000004343F0FE4040F4000070477FEA2262A2
:1012C00016BF08467FEA23630146420206BF5FEA73
:1012D000412390EA010F40F4800070474FF0000373
:1012E00004E000BF10F0004348BF40425FEA000C3A
:1012F00008BF704743F0964301464FF000001CE0E2
:1013000050EA010208BF70474FF000030AE000BF37
:1013100050EA010208BF704711F0004302D5404275
:1013200061EB41015FEA010C02BF844601460020E7
:1013300043F0B64308BFA3F18053A3F50003BCFA02
:101340008CF2083AA3EBC25310DB01FA02FC6344AF
:1013500000FA02FCC2F12002BCF1004F20FA02F2B6
:1013600043EB020008BF20F00100704702F12002A9
:1013700001FA02FCC2F1200250EA4C0021FA02F20A
:1013800043EB020008BF20EADC7070474FF0FF0C0F
:101390001CEAD0521EBF1CEAD15392EA0C0F93EA0A
:1013A0000C0F6FD01A4480EA010C400218BF5FEAAC
:1013B00041211ED04FF0006343EA501043EA51111F
:1013C000A0FB01310CF00040B1F5000F3EBF490019
:1013D00041EAD3715B0040EA010062F17F02FD2A1D
:1013E0001DD8B3F1004F40EBC25008BF20F0010000
:1013F000704790F0000F0CF0004C08BF49024CEA17
:10140000502040EA51207F3AC2BFD2F1FF0340EAA8
:10141000C250704740F400004FF00003013A5DDC19
:1014200012F1190FDCBF00F000407047C2F100025A
:10143000410021FA02F1C2F1200200FA02FC5FEA47
:10144000310040F1000053EA4C0308BF20EADC7091
:10145000704792F0000F00F0004C02BF400010F403
:10146000000F013AF9D040EA0C0093F0000F01F0B0
:10147000004C02BF490011F4000F013BF9D041EAD2
:101480000C018FE70CEAD15392EA0C0F18BF93EAD4
:101490000C0F0AD030F0004C18BF31F0004CD8D1FE
:1014A00080EA010000F00040704790F0000F17BF85
:1014B00090F0004F084691F0000F91F0004F14D0CB
:1014C00092EA0C0F01D142020FD193EA0C0F03D123
:1014D0004B0218BF084608D180EA010000F0004026
:1014E00040F0FE4040F40000704740F0FE4040F401
:1014F000400070474FF0FF0C1CEAD0521EBF1CEAA0
:10150000D15392EA0C0F93EA0C0F69D0A2EB0302BD
:1015100080EA010C49024FEA402037D04FF0805357
:1015200043EA111143EA10130CF000408B4238BF1C
:101530005B0042F17D024FF4000C8B4224BF5B1A2A
:1015400040EA0C00B3EB510F24BFA3EB510340EA78
:101550005C00B3EB910F24BFA3EB910340EA9C0026
:10156000B3EBD10F24BFA3EBD10340EADC001B0196
:1015700018BF5FEA1C1CE0D1FD2A3FF650AF8B423A
:1015800040EBC25008BF20F0010070470CF0004C47
:101590004CEA50207F32C2BFD2F1FF0340EAC25072
:1015A000704740F400004FF00003013A37E792F033
:1015B000000F00F0004C02BF400010F4000F013A91
:1015C000F9D040EA0C0093F0000F01F0004C02BF8C
:1015D000490011F4000F013BF9D041EA0C0195E7F5
:1015E0000CEAD15392EA0C0F08D142027FF47DAF8E
:1015F00093EA0C0F7FF470AF084676E793EA0C0F7E
:1016000004D14B023FF44CAF08466EE730F0004C7B
:1016100018BF31F0004CCAD130F000427FF45CAF0B
:1016200031F000437FF43CAF5FE700BF4FF0FF3C79
:1016300006E000BF4FF0010C02E000BF4FF0010CCC
:101640004DF804CD4FEA40024FEA41037FEA226C95
:1016500018BF7FEA236C11D001B052EA530C18BFB7
:1016600090EA010F58BFB2EB030088BFC81738BF1C
:101670006FEAE17018BF40F0010070477FEA226C0A
:1016800002D15FEA402C05D17FEA236CE4D15FEA06
:10169000412CE1D05DF8040B704700BF844608463A
:1016A0006146FFE70FB5FFF7C9FF002848BF10F1FB
:1016B000000F0FBD4DF808EDFFF7F4FF0CBF012040
:1016C00000205DF808FB00BF4DF808EDFFF7EAFFCA
:1016D00034BF012000205DF808FB00BF4DF808ED85
:1016E000FFF7E0FF94BF012000205DF808FB00BF7A
:1016F0004DF808EDFFF7D2FF94BF012000205DF800
:1017000008FB00BF4DF808EDFFF7C8FF34BF01200C
:1017100000205DF808FB00BF4FEA4002B2F1FE4F27
:101720000FD34FF09E03B3EB12620DD94FEA0023A3
:1017300043F0004310F0004F23FA02F018BF40427C
:1017400070474FF00000704712F1610F01D1420263
:1017500005D110F0004008BF6FF0004070474FF017
:101760000000704742000ED2B2F1FE4F0BD34FF093
:101770009E03B3EB126209D44FEA002343F0004307
:1017800023FA02F070474FF00000704712F1610F2A
:1017900001D1420202D14FF0FF3070474FF00000FC
:1017A000704700BF53B94AB9002908BF00281CBFC1
:1017B0004FF0FF314FF0FF3000F084B9ADF1080C6D
:1017C0006DE904CE00F016F8DDF804E0DDE902234F
:1017D00004B0704746F6961380EA104080EA102065
:1017E00080EA101000F00F0043FA00F000F0010052
:1017F000704700BF2DE9F0478C460446089E002B39
:101800004BD18A42154667D9B2FA82F24AB1C2F187
:10181000200701FA02F320FA07F7954047EA030C84
:1018200094404FEA154EBCFBFEF71FFA85F80EFBFD
:1018300017C307FB08F9210C41EA0343994509D96D
:10184000EB1807F1FF3180F01C81994540F21981B6
:10185000023F2B44A3EB0903B3FBFEF00EFB103356
:1018600000FB08F1A4B244EA0344A14209D92C19AF
:1018700000F1FF3380F00781A14240F20481023879
:101880002C4440EA07400027641A1EB10023D440CC
:10189000C6E900433946BDE8F0878B4209D9002EDE
:1018A00000F0EC800027C6E9000138463946BDE863
:1018B000F087B3FA83F7002F48D18B4202D38242DC
:1018C00000F2FB80841A61EB030301209C46002E8A
:1018D000E0D0C6E9004CDDE702B9FFDEB2FA82F2E1
:1018E000002A40F08F800127491B4FEA15481FFA54
:1018F00085F9B1FBF8FE08FB1E1109FB0EF04FEA5B
:10190000144C4CEA0143984207D9EB180EF1FF3111
:1019100002D2984200F2CD808E461B1AB3FBF8F03B
:1019200008FB103309FB00F9A4B244EA0344A145C3
:1019300007D92C1900F1FF3302D2A14500F2B6807D
:101940001846A4EB090440EA0E409EE7C7F12005C3
:10195000BB4022FA05FC4CEA030C21FA05F44FEADD
:101960001C4EB4FBFEF91FFA8CF80EFB194420FA4A
:1019700005F3B94009FB08FA19430B0C43EA044488
:10198000A24502FA07F200FA07F30BD91CEB040494
:1019900009F1FF3080F08880A24540F28580A9F1EE
:1019A00002096444A4EB0A04B4FBFEF00EFB1044ED
:1019B00000FB08FA89B241EA0444A24508D91CEBAD
:1019C000040400F1FF316BD2A24569D902386444A6
:1019D00040EA0940A0FB0289A4EB0A044C454146B9
:1019E000CE4654D351D0002E69D05A1A64EB0E045F
:1019F00004FA05F522FA07F3FC401D43C6E900543A
:101A0000002747E79540C2F1200321FA03F04FEA8F
:101A10001548B0FBF8F71FFA85F908FB170024FA00
:101A200003F3914007FB09FC0B43190C41EA004109
:101A30008C4504FA02F407D9691807F1FF3031D256
:101A40008C452FD9023F2944A1EB0C01B1FBF8F0E2
:101A500008FB101C00FB09FE99B241EA0C418E45BF
:101A600007D9691800F1FF3318D28E4516D902380C
:101A70002944A1EB0E0140EA07473AE737463046D2
:101A800008E70F46E6E61846FBE64345ABD2B8EB5F
:101A9000020169EB0C0201389646A4E71846E8E714
:101AA000084695E70746CFE781467BE702382C4496
:101AB00047E7AEF1020E2B442FE7384607E73746DB
:101AC000E8E600BF704700BF02E000F000F8FEE764
:101AD00072B6284880F30888274880F30988274889
:101AE0004EF60851CEF200010860022080F31488FF
:101AF000BFF36F8F08F0FCFA08F0DCFA08F054FB33
:101B00004FF055301E491B4A91423CBF41F8040B2F
:101B1000FAE71C49184A91423CBF41F8040BFAE726
:101B200019491A4A1A4B9A423EBF51F8040B42F81F
:101B3000040BF8E700201749174A91423CBF41F8CF
:101B4000040BFAE708F0BAFA08F030FB134C144D16
:101B5000AC4203DA54F8041B8847F9E700F0BCFFF5
:101B6000104C114DAC4203DA54F8041B8847F9E7D6
:101B700008F0A2BA00020020500400200010000863
:101B8000000000200002002020B2000850040020C5
:101B90008C04002090040020B8140020601100087C
:101BA0007011000870110008701100082DE9F04F45
:101BB000C1F80CD0C3689D46BDE8F08F002383F3C5
:101BC00011882846A047002007F0AAFFFEE707F08B
:101BD00085FE00DFFEE7000000220A4B1A60586312
:101BE0009A6842F001029A6010221968890705D4A8
:101BF000013AFAD11A604FF6FF707047D86C80B284
:101C0000704700BF0024014008B507F009F8074BF2
:101C10009A6942F400729A614FF4D8329B69044B7E
:101C20001A610022DA621A6308BD00BF0010024088
:101C3000002401400420FFF7CFBF00000520FFF77C
:101C4000CBBF000070470000002070474FF4805069
:101C50007047000070B50A21044604202C4A2D4B21
:101C60009269A4F88E00A4F89010C4F830229A6803
:101C7000520405D59B681B045CBF012384F8133212
:101C800094F814323BB306224FF48041224806F008
:101C9000D9FA204DFFF7B8FF204601F0CDF82846CD
:101CA00006224FF4005106F0CDFA4FF400531B4EBC
:101CB0002B6133681A49586D0268526E8A4222D1EC
:101CC0004FF48050A4F894005D6D164A2B685B6851
:101CD000934207D170BD07224FF480410E4806F0B1
:101CE000B1FAD6E7284698470028F3D095F84E3049
:101CF000022BEFD13368D86C03681B6D9847012322
:101D000084F8A83070BD9047336880B2DAE700BF2E
:101D10003413002000100140000C0140EC060020AC
:101D20004D1C0008491C000803462DE9F0410646F9
:101D300053F8FC4F00F1DC0599685868DA681C4FCD
:101D4000C6F8DC406860A960EA601C695869996956
:101D5000DA693B682C616861A961EA61D86C00248A
:101D600003681B6B984706E02A8801349847082CC3
:101D700005F1020514D03B6896F8A820D86CE1B2B2
:101D800003685B69002AEFD1B6F88820E24012F0C0
:101D90000102E9D101349847082C05F10205EAD186
:101DA0003B68BDE8F041D86C03685B6B184700BF27
:101DB000EC06002090F81322D0F83C32A2B990F83B
:101DC000FB11D0F81822002914BF7D214FF4FA71BD
:101DD0009A1A8A4207D91E49CA6882F48042CA60A8
:101DE000C0F8183270477047B0F88A2032B140F618
:101DF000B832D0F808125B1A934209D990F814321D
:101E0000134A83F001019B0743EA81331361704752
:101E100010B5044601F0A2F9B4F88A300D4AC3EBBC
:101E20000343A2FB0323B0EB531F35BF94F81432D6
:101E300094F8142283F0010282F0010339BF920763
:101E40009B039B039207024913430B6110BD00BF24
:101E5000000C01401F85EB5110B5B0F8603004460E
:101E6000DB0707D50023A0F89E30FFF7E3FEA4F8B8
:101E70009C0010BDFFF7E2FEA4F89E00FFF7DAFE1B
:101E8000A4F89C0010BD00BFF8B58278322A1BD898
:101E9000DFE802F0535F1A6B771A1A1A1A1A1A1A25
:101EA0001A1A1A1A1A1A1A1A1A1A1A1A1A1A1A1A92
:101EB0001A1A1A1A1A1A1A1A1A1A1A1A1A1A1A1A82
:101EC0001A1A1A1A1A1A1D0000231846F8BD1724E8
:101ED0002546234690F8301000F1600764F30501B1
:101EE00080F830100478C67804F03F017418AC42D2
:101EF000EADC9B1B03F03F048C4228BF0C46162CE7
:101F0000A8BF1624054680F8322080F8304080F8BB
:101F1000336007EB46016200343008F063FB0023B6
:101F2000A11C85F83130490005F1300001F02EF98F
:101F3000012385F831001846F8BD022490F83010CE
:101F4000254664F30501234680F8301000F18E0722
:101F5000C8E70E2490F83010254664F305012346A7
:101F600080F8301000F19407BCE7102490F830108E
:101F7000254664F30501234680F8301000F1DC07A4
:101F8000B0E7132490F83010254664F3050123468A
:101F900080F8301000F1B007A4E700BF0122D0F8AC
:101FA0003C3280F810221944C0F80C12704700BF70
:101FB000F8B583780446372B00F0968041D8322B51
:101FC0005BD0362B31D190F8FB3173BB0278C178EE
:101FD00002F03F028818102831DC8BB20F2B1BD87F
:101FE00092B2CAB1013AC3F10F039BB2201D92B263
:101FF00000EB42024D0000EB43004FF6FF77A31CBD
:1020000001E09A4208D033F8021FB9421CBF5E19A2
:10201000A6F8F8108342F4D1D4F83C320221C4F877
:102020000432D4F8300207F03FFA0023204604219E
:1020300040F8303F01F0AAF8012384F83100184637
:10204000F8BDC82B09D0C92BEFD1037803F03F03AB
:10205000012B59D000231846F8BD0278C37802F04E
:102060003F0299185A29F5DC00F5A270520000EBE6
:102070004300211D08F0B6FAD7E7C378172BD4D850
:1020800001A252F823F000BF652200085D2200087B
:102090004F22000831220008232200082B200008CC
:1020A0002B2000082B2000082B2000082B200008E4
:1020B000052200082B200008E52100082B2000083D
:1020C000C52100082B2000082B2000082B20000829
:1020D0002B200008AB210008992100088921000865
:1020E00077210008612100080278C37802F03F02DE
:1020F00099181029AEDC00F58E70520000EB4300F9
:10210000211D08F06FFA90E7C37890F8FA2100EBF0
:1021100043039B88A0F8F83190F8F8319A4284D0B4
:1021200000256C4F11E01369314698473B6806F172
:102130006501586CC9B2036801225B689847013594
:10214000082D94F8F83100F0B2803A68EB40D06C7A
:10215000DB07EEB20268E6D4D36831469847EEE773
:10216000037803F03F03022B7FF45FAF456801F073
:1021700033FB456559E790F84432002B7FF455AFA7
:10218000012380F8443250E78288D0F83C32A0F82E
:102190008A20C0F8083248E74E4A83881268A0F8BF
:1021A0008830D26CC2F80C313FE74FF47A738288E2
:1021B000B3FBF2F3032B38BF0323A0F88620C0F84B
:1021C000003232E745F20B6382889A427FF442AFD5
:1021D000404B1B68D86C0368DB6C9847002384F87D
:1021E000A83022E745F20B6382889A427FF432AF2F
:1021F000384B1B68D86C03681B6D9847012384F823
:10220000A83012E790F8A830002B7FF423AF43F6F4
:102210004612818891427FF412AF6421FFF7BEFE1F
:1022200003E70122838880F81222A0F86830FCE6D8
:102230008388182B42D8B0F88C20012A01D11923A9
:1022400083800122A4F8663084F81122EDE6012291
:10225000838880F81222A0F86430E6E68388A0F82C
:102260006230E2E68388D907A0F8603022D54FF4C7
:102270007A72B0F886104FF08075B2FBF1F2032A43
:102280004FF0100138BF032223F00E03A4F8603092
:102290001148124BC4F8002245605961B4F860300F
:1022A0005A067FF5C2AE012384F81332BDE684F8E6
:1022B000FA31BAE61022094B1A61EFE7B3F5C87F8D
:1022C000BFD9B0F88C20012A02BF4FF4C872134660
:1022D0008280B6E7EC06002000000140000C0140BF
:1022E0000022F8B53D4D0446D5F8A4300133C5F8B9
:1022F000A4300378477803F03F01023113F0C00F98
:1023000042704FEA410613D1042100F03FFF87429B
:1023100027D1237803F03F02162A0ED89B0925D037
:10232000012B3CD12046FFF743FE002842D0F8BDE8
:10233000314600F02BFFB842EBD040232046042169
:1023400040F8303F00F022FF84F83100D5F8A0209B
:1023500095F8A93001320133C5F8A02085F8A930DD
:10236000F8BD3146204600F011FFE4E72046FFF7B4
:102370008BFD0028DBD180232046042140F8303F2C
:1023800000F004FF84F83100D5F8A02095F8AB30B8
:1023900001320133C5F8A02085F8AB30F8BDD5F87F
:1023A000A02095F8AA3001320133C5F8A02085F8A5
:1023B000AA30F8BD80232046042140F8303F00F0C9
:1023C000E5FE84F83100D5F8A02095F8AC30013254
:1023D0000133C5F8A02085F8AC30F8BD900400208A
:1023E00070B52023044683F311880E2381682E4D97
:1023F0004A69284622F0C0024A616169A2684968B8
:102400001668566852680A6822F00F020A6061690D
:102410004A7B096803FA02F24A60A26951680A68B5
:1024200022F00F020A60A269517B12688B40536050
:10243000FFF756FF3021636968185B680022DD6092
:1024400063695B6859606169E368496843F08203C6
:102450000B60636959680B6843F001030B60A16866
:102460004B6943F040034B61A3695B68D86095F802
:102470003030A16903F03F03496802335B004B60D1
:10248000A1692369496843F092030B60A369596805
:102490000B6843F001030B60A1684B6943F08003B4
:1024A0004B6182F3118870BD9004002040F20F113F
:1024B00070B4826883B0126892B2ADF80620BDF89D
:1024C0000620114206D1BDF80630DB0659D403B010
:1024D00070BC70470346202282F311886FF4807429
:1024E0000E218068294A04609D683024E86840F025
:1024F0000100E860D2F8A05092F8AD00013501303B
:10250000C2F8A05082F8AD009D68686920F0C00054
:1025100068615D6998686D68066846684068286803
:1025200020F00F0028605D69687B2D6801FA00F0DB
:10253000686098694568286820F00F0028609869ED
:10254000457B0068A9404160596900204968CA601C
:102550005A69526854605969DA68496842F08202DF
:102560000A605A6951680A6842F001020A609A6872
:10257000536943F04003536180F3118803B070BC8A
:10258000704703B070BCFFF72BBF00BF9004002062
:1025900070B5064600200A4C0A4D82B0042254F859
:1025A000043B0DEB0201019300F012FEAC42F5D1A9
:1025B000030CA6F87600A6F8783002B070BD00BF14
:1025C000001000080000010838B5134D00242B68E6
:1025D000986C03681B6898472B68D86C03681B6865
:1025E00098472B68E1B2D86C01340368DB689847E0
:1025F0000E2CF6D10948FFF72DFB0848FFF7C8FF5E
:102600000749084806F014FEBDE83840034A302167
:10261000044806F01BBE00BFEC060020900400201A
:1026200050040020D0120020D0F83C22D0F81C32F8
:10263000D31A632B3DD910B5334BC0F81C229B68CD
:102640000446990690F8A8201BD40023C4F8203231
:10265000002A4FF6FF7308BF4FF4AA4394F82422D0
:10266000013202F00F0284F82422D340DA435B07E0
:10267000520302F4005203F00053234913430B6149
:1026800010BDB0F86230AAB113F40063DDD1D0F808
:10269000202201320A2AC0F8202220D11B4A84F8C5
:1026A000A8301368D86C0368DB6C984794F8A820AE
:1026B000CEE77047DB04C8D4D0F8203201330A2BB0
:1026C000C0F8203215D10122104B84F8A8201B68D5
:1026D000D86C03681B6D984794F8A820B8E790F869
:1026E00024224FF6FF73013202F00F0280F82422F9
:1026F000BBE790F824224FF4AA43013202F00F0204
:1027000080F82422B1E700BF000C0140EC06002055
:1027100070B5B0F860300446DA0602D590F82C2285
:102720004AB39B0626D594F82D321BBB0123204DBE
:10273000B4F8642084F82D322B6862B3D86C4FF45F
:10274000FA6203684FF47A715B6D98472B68B4F8AE
:102750006410D86C04220368D3F8803098472B6843
:10276000B4F86820D86CB4F864100368BDE8704011
:102770005B68184770BD01220D4B80F82C221B6846
:102780000222D86CB4F864100368D3F880309847FC
:10279000B4F86030C5E7FF214FF4FA62A4F8641082
:1027A000A4F86820D86C03685B6898472B68C5E775
:1027B000EC06002090F8A82000F1FC0300F58E71D3
:1027C0003AB91A8002338B42FAD190F8F631ABB99C
:1027D000704710B41C8C023323F8024C8B4205D096
:1027E000002AF7D11A8002338B42F9D190F8F631E2
:1027F0000BB910BC704710BC00F042BA00F040BAF0
:1028000070B5494D04462B68986C01F09BFC2B6811
:10281000986C03689B689847002858D1D4F83C32DC
:10282000D4F8D8209B1AC82B82BF94F8B13060F33B
:10283000410384F8B13094F812325BB12B68B4F8DC
:102840006820D86CB4F8641003685B68984700236C
:1028500084F8123294F8113253B12B68B4F8661030
:10286000D86C0368D3F88C309847002384F8113271
:1028700094F8F62194F8FB311AB394F9F221002A66
:102880001FDD94F8B11089071BD5102A19DC40F21E
:10289000D56104EB4202B2F8B2208A4294BF002014
:1028A0000120984284F8FB0110D08A4202D92046C8
:1028B000FFF780FFD4F830020221BDE8704006F037
:1028C0001DBE002284F8FB21002BF3D170BD00F067
:1028D00083FF2B680646986C0368DB68984794F87A
:1028E000B1302A6843F0020384F8B00084F8B130B4
:1028F000906C04F1B401036810225B699847D4F826
:102900003C323046C4F8D830337884F8B23000F026
:102910009BFDA4F8D40096F8402094F8B13062F3FF
:10292000000384F8B13086E7EC06002070B5054658
:1029300000240C4E95F8F83104F16501E34013F0E2
:10294000010FC9B209D0336895F8F921586CE240FB
:10295000036802F001021B6998470134082CE9D191
:1029600070BD00BFEC06002070B5002104464FF09A
:10297000FF3006F0CFFD064603F078F8D4F8403279
:1029800094F8102201330546C4F83C02C4F84032E2
:1029900022B1D4F80C32984200F28880B20794F841
:1029A000A83003D494F834229A4209D0003318BFD7
:1029B0000123204684F83432FFF7B6F9D4F83C52AC
:1029C000B4F86030C4F89850DB0703D594F8A83009
:1029D000002B5CD1D4F80432EB1AC82B33D9D4F8CD
:1029E0004C32EB1A0A2B47D84FF00042344B1A6195
:1029F000D4F83832EB1A322B30D8D4F82832AB4224
:102A000020D02046C4F82852FFF7D4F92046FFF71B
:102A1000F7FE2046FFF708FE2046FFF779FE204626
:102A200000F038FA274B284A1B68D86C0368DB6E25
:102A3000934243D194F84432B3B92046BDE8704084
:102A4000FFF774BF70BD4FF400421D4BC4F84C52E9
:102A50001A61D4F83832EB1A322BCED9C4F8385276
:102A60002046FFF7F9F9C8E7204600F0D1FA2046E2
:102A7000BDE87040FFF75ABF2046FFF79BFE0221DA
:102A8000D4F8300206F03AFDC4F84C52ACE7D4F862
:102A9000FC31D4F80022EB1A93429BD3C4F8FC51CA
:102AA000102104F1DC0000F0B1F993E7054B01219E
:102AB0001B68186D03689B6B9847FEE79847B9E75A
:102AC000000C0140EC060020451C00080148FFF7FF
:102AD0004BBF00BF90040020054B10B51B680A4691
:102AE0001C68014624681846024BA047002010BD10
:102AF000EC060020E0060020C82208B5114B322168
:102B0000A3F8682042F21072A3F86C204822A3F8C0
:102B100086204FF6FF72A3F88A200122A3F86610E0
:102B2000A3F88C20A3F8401183F8142201F0BEFD15
:102B3000054B064A186006490648BDE8084000F003
:102B4000DBBA00BF90040020EC060020CD2A00086C
:102B5000C9250008E006002030B5431800EB41010C
:102B600093F8DC41B1F8D43193420FD2B1F8CC5193
:102B7000AB420BD041F29410D21A5043EB1A90FBA7
:102B8000F3F000B20CB1404200B230BD934209D91B
:102B9000B1F8C4118B4205D041F29410D21A5043BF
:102BA0005B1AECE70020EDE710B5431800EB41009D
:102BB00093F8DC41B0F8CC3193420FD3B0F8C41194
:102BC00091420ED84FF47A70521A50435B1A90FB20
:102BD000F3F000B20CB1404200B210BD4FF47A7075
:102BE000F8E70148F6E700BF18FCFFFF70B50446A0
:102BF000631893F8B4310D4610460BB1504200B241
:102C00000E4E41F29412314600F0A0FA6D002C44B1
:102C1000021EB4F884310ADDB4F86401C01A5043CE
:102C200041F2941290FBF2F0184480B270BDB4F8F7
:102C30004401C01A504390FBF6F0F5E76CEEFFFF3D
:102C400070B50446631893F8B4610D461046002130
:102C50004FF47A7200F07AFA16B1C0F57A7000B2C9
:102C600004EB4504B4F84431B4F86421D21A50435B
:102C70004FF47A7290FBF2F0184480B270BD0000FD
:102C8000F7B5002490F8B13007469B07CDE9004422
:102C90001AD500F5F67515F8013BE1B2013BDBB240
:102CA0000F2B0ED807EB4303022CB3F8B4202AD124
:102CB00097F8F3313BBB21463846FFF775FFADF877
:102CC00004000134042CE6D100254FF47A76B7F8DD
:102CD000F421E9B2EA4012F0010265D17C1994F8BE
:102CE000A431192B2AD8182B15D2102B78D018D82C
:102CF000032B0ED8022B6ED2012B55D00135102D8F
:102D0000E5D103B0F0BD3846FFF726FF2DF81400DB
:102D1000D7E7042BF2D1BDF900203846FFF766FF54
:102D20005CE0142B05D8132B4FD2112B25D0122B7E
:102D3000F0E7152BE2D1BDF90620EEE74A2B15D8B6
:102D4000492B07D2422B03D8332B34D21A2BF1E76D
:102D5000462BD3D197F8F331BDF904202C443846E3
:102D6000B3B3FFF743FFA4F8FC00C7E74F2B3DD0F8
:102D70000FD84D2B34D04E2BC0D1BDF90020BDF95A
:102D800002301344B7F8F0215A4392FBF6F212B224
:102D9000C3E7562B24D0572BEFD0502BAED1BDF923
:102DA0000220BDF906301FE007EB4503B3F8B4205D
:102DB000A3F8FC20A2E7333BDBB207EB4303B3F8F5
:102DC000B4302C44A4F8FC3098E7BDF90220A4E705
:102DD000FFF736FFC7E73846FFF732FF2C44C2E75C
:102DE000BDF90220BDF90030D31ACBE7BDF90620AA
:102DF000C5E7000038B50446256802F037FE854275
:102E0000FAD002F033FE206038BD000000B5084B58
:102E100089B01B7843B901AA01F08EF80548192240
:102E2000036801A95B68984709B05DF804FB00BF1F
:102E3000F00600203012002010B5114C1149124844
:102E400006F0AEF91149204606F0AAF9022210490F
:102E50002023201D06F008FB00F0BEFC438843F051
:102E60000403438000F0B8FC438843F00803438028
:102E700000F0B2FC438843F48063438010BD00BF80
:102E8000301200205CA600089011002070A60008F7
:102E9000F40600202DE9F04F87B0814602F0E6FDF0
:102EA000044600F099FC2146804600F06FFA4F4D31
:102EB00008B100232B702B78012B2DD84C48102201
:102EC000036802A91E6A0023B047074620B3494B96
:102ED00010281E7828BF1027F6B9474B4FF0010B7A
:102EE0009A461A683A441A60F3B29F4214D906AA65
:102EF000134413F8101C4FF4E132404600F066FB17
:102F000040B121464046CAF8104000F03FFA08B9E7
:102F100085F800B00136E7E72B7813F0FD033FD1C9
:102F2000364802A90268166A1022B04707460028F0
:102F300036D0304B304E1A78019342B3102F28BF51
:102F400010274FF0000A4FF0020B73683B44736088
:102F50005FFA8AF2974223D906AB9918019B11F8C0
:102F6000101C1A78264B002A0CBF1A464FF4E13287
:102F7000404600F02BFB38B121464046346100F05A
:102F800005FA08B985F800B00AF1010AE0E71D4822
:102F900006F07EFA8306D1D5B368F0600133B360E2
:102FA0002B78FBB9144B1A69A21AB2F5FA6F1A46BC
:102FB00018D9104DB9F860102B78012B01D0C90732
:102FC00010D483F001030D4814612B7006F0F6F85D
:102FD00029780D4A0D4B094800290CBF11461946A6
:102FE00006F0DEF807B0BDE8F08F00BF080700204C
:102FF00090110020F00600200C0700203012002065
:10300000A0860100F406002070A600085CA6000857
:103010002DE9F34190F84422D0F83C32013A0446BD
:103020000193032A5DD8DFE802F002212F512E4DD3
:10303000062228464FF4005105F004F94FF00053E2
:10304000A5F50065C5F8103806224FF480612846C2
:1030500005F0F8F84FF480632B61022384F84432C2
:10306000019BC4F8483202B0BDE8F081D0F8482294
:103070009A1AB2F5FA7FF6D34FF400511A4A116149
:10308000032280F84422ECE7D0F848229B1A472B11
:10309000E9D901A8FFF7AEFE09254FF080684FF48B
:1030A0008067124E01A8FFF7A5FE013DC6F810800B
:1030B00001A8FFF79FFE15F0FF053761F2D1019BD4
:1030C000C4F84832042384F84432CCE7D0F84822CC
:1030D0009B1A312BC7D902224FF48061034805F0B7
:1030E000B1F80023EFE700BF0010014000080140E5
:1030F000436818478368184710B5024C8260C0E9DE
:10310000004110BD8CA600080A4630B50A4C85B0B7
:10311000051D61682068092A01AB03C388BF002030
:10312000218919809FBF04ABD21812F80C3C55F8C6
:10313000230005B030BD00BF50A60008884203D36D
:103140009042014628BF114608467047884203DB7B
:1031500090420146A8BF11460846704749F26900EF
:1031600008490B689AB21B0C00FB02330B6044F257
:103170005061054A136898B21B0C01FB00301060C7
:1031800080B270477C04002078040020002310B532
:10319000054A0144884204D010F8014B6340D35CD7
:1031A000F8E7184610BD00BF94A60008082341F2B6
:1031B000210280EA012010F4004F03F1FF334FEAAF
:1031C000400018BF50409BB280B2002BF3D1704733
:1031D00030B5094D0A4491420DD011F8013B5840D9
:1031E000082340F30004013B2C4013F0FF0384EA62
:1031F0005000F6D1EFE730BD2083B8ED0246002342
:1032000010B5141AE4B2A14206D912F8014B2344B6
:1032100003EB1323DBB2F4E7C3F1FF00C0B210BD30
:10322000F8B50546002700F1080400F1380654F807
:10323000040B20B103685B68984744F8047CB442EF
:10324000F5D12846F8BD0000012303FA00F040F64E
:103250001D53184214BF01200020704738B50446A2
:10326000642002F077FC054620B1214600F0E0FA28
:10327000404B2B60A560842002F06CFC054610B129
:10328000214603F049FAE560802002F063FC054620
:1032900020B1394B0122214603F03EFB2561AC20D1
:1032A00002F058FC054658B1214600F0C1FA284604
:1032B000324B002240F8903B4FF4E13103F02CFFF9
:1032C000A561B02002F046FC0546B0B1214600F0F1
:1032D000AFFA2B4B00222B60012385F83E2085F8A6
:1032E0008920A5F88A2085F88C3085F88D204FF448
:1032F000E13105F1940003F00FFFE561B82002F021
:1033000029FC0546A8B1214600F092FA28461D4B3B
:103310002822002140F8683B07F070F900224FF4A2
:10332000E131C5E92422A5F8982005F19C0003F0BD
:10333000F3FE2562A42002F00DFC054668B121468B
:1033400000F076FA0022104B85F83E202B604FF4F7
:10335000E13105F1880003F0DFFEE562942002F020
:10336000F9FB054618B10122214600F0EBFC25636C
:1033700038BD00BF30AD0008A0860100ECA70008F2
:10338000D0AD000880AD0008A8AD000803780C2B74
:1033900006D1C06B081AC72894BF002001207047CF
:1033A0000020704770B503780E460C2B0ED1C36B0E
:1033B00063B900F1080500F1380455F8040B18B1A1
:1033C000036831461B699847A542F6D170BD0000DD
:1033D00070B50C4605460B6801795B6E2046984730
:1033E000236820469B6E697998472368AA79D3E9B8
:1033F000156320467AB1984740F0010189B2204612
:10340000B04723682968DE6A80232046B446BDE8B9
:1034100070401A46604798474FF6FE710140EEE74C
:1034200003780C2B04D0023350F8230000F01ABAB2
:103430000020704703780C2B04D0023350F823008F
:1034400000F014BA7047000003780C2B1DBF023344
:1034500050F82330B3F93A004FF0FF3070470000C6
:1034600003780C2B1DBF023350F82330B3F93C0016
:103470004FF0FF307047000038B500F1080500F14B
:10348000380455F8040B10B103685B699847A542EE
:10349000F7D138BD436D012013F0010F05D1014470
:1034A0008840184214BF0120002070472DE9F74FD3
:1034B00004469246894602F0D9FA0146074620465C
:1034C000FFF764FF217802460C2905D02046FFF75C
:1034D000E1FF08B90C23237023780C2B1BD025792E
:1034E0001DB1C2B903B0BDE8F08FAAB9023354F8D8
:1034F00023005246036849469B6898472378023365
:1035000054F8230000F0A4F90028EBD00123E7636E
:1035100084F83830E6E7002563885FFA85F8EB40E9
:10352000DB0737D404EB850BDBF80860002E31D0C5
:1035300041462046FFF7AEFF60B333695246009321
:10354000B36849460193336830469B689847DBF877
:103550000820009B11698B421CD24046FFF774FE85
:1035600008B1022916D99368019A00209B1A18BF46
:10357000012384F83830234604F1380103F8088B1E
:1035800053F8042B02B110618B42F9D10023E76399
:103590002371A7E701350C2DBED1A3E7F8B51F466F
:1035A000D3070646154610D401F108046DB154E95D
:1035B000021217B10B4611461A46521A3046023D06
:1035C000FFF774FFADB20834F0E7F8BD2DE9F04F16
:1035D00085B0044693468A4602F048FA0146814681
:1035E0002046FFF7D3FE217802460C2905D020465D
:1035F000FFF750FF08B90C23237023780C2B1ED043
:10360000267916B9DAB9002615E0C2B9023354F8A2
:1036100023005A4603685146DB68984723780233F3
:1036200054F8230000F014F928B10123064684F869
:103630003830C4F83C90304605B0BDE8F08F002526
:1036400004F10803039304F1040858F8047F002FE1
:1036500039D029462046FFF71DFF0646002832D004
:103660003B695A460193BB68514602933B68384612
:10367000DB689847D8F80020019B11698B4222D261
:103680002846FFF7E1FD08B102291CD99368029A88
:1036900000219B1A18BF012384F8383001232371BD
:1036A000039B2570C4F83C90383453F8042B02B1C6
:1036B00011619C42F9D1064B00211B68986C03688C
:1036C0009B6A9847B7E70135EDB20C2DBDD19AE75B
:1036D000EC0600202DE9F843436C0446002B4FD044
:1036E00002F0C4F9014605462046FFF74FFE0746A3
:1036F00010B92379002B43D094F848302A4E63B98F
:10370000012384F8483002F0B1F9E06494F85000E5
:10371000616C06EBC000FFF75BFE94F8503020466A
:1037200056F8338000264146FFF73CFE606C036884
:103730001B699847FF2828BFFF208146F3B29945AF
:103740000CD9606C03685B699847011E04DB424634
:10375000C9B22046FFF73AFF0136EFE797B1E36CB5
:10376000ED1AB5F57A7F0BD994F850300133DBB2FE
:10377000042B88BF002384F85030002384F848309D
:10378000BDE8F88323780C2BFAD0023354F82300D9
:103790000368DB6998470028F2D1E36CED1AB5F5B0
:1037A0007A7FEAD8ECE700BF94A70008002370B541
:1037B000044690F8386080F83830FFF78BFF04F14A
:1037C0000805383455F8040B10B103689B69984715
:1037D000A542F7D1304670BD08B5074B1A68D2072D
:1037E00008D40C2205480649027001221A60054AD5
:1037F00006F086FE014808BD2007002024070020AF
:1038000021320008040F00207047000070470000BC
:1038100070470000704700007047000070470000CC
:103820000120704710B5044602F09AF9204610BDF9
:10383000064AC0E900210022C0E9022280F83820AF
:103840004FF6FF7242878287704700BFC4A7000807
:103850000346D0E902218A4216BF01200020DA6027
:103860007047000090F8380070470000122A0B469D
:1038700028BF122200F114015200184606F0B2BE11
:103880001229A8BF122170B5044610461E460D46E7
:103890004A00014604F1140006F0A4FE226984F8EF
:1038A000385001322261626882F84060A3680133B7
:1038B000A360BDF910306387BDF91430A38770BDD4
:1038C0000B20F0B5D20800FB0212BDF81460BDF861
:1038D0001850BDF81C40914203F1100377D04F7887
:1038E000087807F0070740EA0720704390FBF5F0DF
:1038F000204423F8100C88784F7800F03F004001F6
:1039000040EAD700704390FBF5F0204423F80E0CFA
:10391000C8788F78800040EA97100F790B3107F054
:10392000010740EA8720704390FBF5F0204423F81C
:103930000C0C11F8060C11F8077C00F00F00C00108
:1039400040EA5700704390FBF5F0204423F80A0C3E
:1039500011F8050C11F8067C00F07F00000140EA28
:103960001710704390FBF5F0204423F8080C11F871
:10397000040C11F8057C400040EAD71011F8037CD4
:1039800007F0030740EA4720704390FBF5F020441E
:1039900023F8060C11F8020C11F8037C00F01F004C
:1039A000800140EA9700704390FBF5F0204423F833
:1039B000040C11F8010C11F8027CC00040EA571009
:1039C000704390FBF5F0204423F8020C83E7F0BD30
:1039D00070470000012380F84C30704770470000AA
:1039E0007047000010B5044602F0BAF8204610BD3A
:1039F000F0B500244FF6FF770126944219D0013428
:103A000001EB44035B7811F8145043EA0523BB42F1
:103A1000F3D0C3F3832506FA05FC056CC3F3C32377
:103A200045EA0C050564456C06FA03F32B43436431
:103A3000E3E7836C5A1C042B826416D9D0E9105634
:103A400000231A4619460E4F57F821400131A5426E
:103A500008BF0132B44208BF01330C29F4D1012B55
:103A600004D142B90B2380F83E30F0BD012A02D1C7
:103A70000BB90A23F7E70023C0E910338364F2E7A8
:103A80000CA800084FF6FF7081420CD041FA02F0FA
:103A900000F00F001860012000FA02F2009B013ACA
:103AA0000A401A6070470020704700002DE9F04F6F
:103AB0009846D0F8843085B0CB1AC82B04461546FA
:103AC0000E9FBDF83C9008D990F83E302BB10023F2
:103AD000C0E91033836480F83E30C4F88410EB688A
:103AE00003F0F013B3F1E01F49D195F90230002B38
:103AF000B4BF0722052294F83E60002E41D04FF457
:103B00007A7B05EB42060DF10C0AA878E97894F867
:103B10003E2041EA0021CDF800A002AB2046FFF78D
:103B2000B1FF10B3029A91451FD940F2A4613B88BE
:103B30009A4224BF531C3B8094F83E300A2B02BFAC
:103B4000039B5B000393039B012AA3F580630BFB9C
:103B500003F393FBF1F303F2DC5303931CD018D36C
:103B6000022A1BD0029A28F812300235B542CCD175
:103B70003B8801200D2B04BF0C233B8006E007226D
:103B8000B9E720462946FFF733FF304605B0BDE8C8
:103B9000F08F02220292E5E70022FBE70122F9E71B
:103BA000F7B51E4690F880300446102B01BF002365
:103BB00080F8803080F88130036190F880300D46C5
:103BC000102B01BF002380F8813080F88030036122
:103BD00090F8810018B1012811D000200BE0D4F832
:103BE0008830CB1A042BF8D9012384F8702084F88C
:103BF000813084F88030C4F8885003B0F0BDD4F828
:103C0000881094F88030691A042906D92BB1002055
:103C100084F8800084F88100EDE7591CC9B2234480
:103C20000F2984F8801083F87020D6D94FF47A7267
:103C300004F1700700913B466A4304212046FFF7D8
:103C4000C7FEBDF824303A46019304F18C0300937B
:103C5000294633462046FFF729FF002384F88030A9
:103C600018B984F881002061C5E7B4F88C20089B5E
:103C70001A80C0E7F0B500F1580604468C4633467A
:103C80008BB004AF00F1700E3D46186859680833D8
:103C900003C573452F46F7D10C2301930DF10E0395
:103CA0000093614604AB2046FFF77AFFC8B1354662
:103CB00004AB0AAF1A4603CABA42286069601346C9
:103CC00005F10805F6D1BDF80E10042909D94FF009
:103CD000FF333246CDE90033C9B200232046FFF757
:103CE000CFFD0BB0F0BD000013B504460DF1070386
:103CF000903003F02BFA50B14FF47A73D4F8A0103F
:103D00009DF80720B1FBF3F12046FFF7B3FF02B0A7
:103D100010BD0000B2F5E13F38B504460D4608D1AC
:103D200001F0A4FE2A4601462046BDE83840FFF7D0
:103D3000A1BF38BD7047000010B5044601F010FF68
:103D4000204610BD38B504461546FFF771FD2046E4
:103D5000084B002240F8403B4FF4E13103F0DCF91E
:103D6000002384F8885084F8893084F89230204603
:103D700038BD00BF44A800084FF4C86340F26B325E
:103D800070B58CB0CDE901324FF47A730D46102234
:103D90000331009304AB0646FFF792FDA87EFDF7C2
:103DA000A1FA0E49FDF7F2FA6C7E0D49C4F3C00486
:103DB0000546FDF789FC00B9094D4FF0FF33284651
:103DC0000193FDF7CFFCC0B20090234604AA102156
:103DD0003046FFF755FD0CB070BD00BF3333A34034
:103DE00000007F4308B510F8611F0231C9B2FFF728
:103DF00005FAB0FA80F0400908BD000037B5D0F8E8
:103E000080300446CB1AB3F5FA6FC0F880100FD398
:103E100000237E2A80F87D3080F884300ED194F81B
:103E200084306BB97D2A10D1012384F8843005E0F9
:103E30007E2AF4D090F87D30002BF0D103B030BD55
:103E4000002382F0200284F8843094F87D00431C23
:103E5000DBB22044022B84F87D3080F8602005D14D
:103E600094F86120192A0AD0082A07E0032B06D10A
:103E700094F86220EAB994F86120192A15D194F8CF
:103E8000622004F16005CAB91D2BD7D100930A4600
:103E900020462B460A21FFF79BFD2046FFF7A2FF95
:103EA00018B129462046FFF767FF002384F87D30CC
:103EB000BBE7012AF9D194F86120D5E7012A0CD19A
:103EC0000C2B0AD100930A4620462B460A21FFF705
:103ED0007FFD2046FFF786FFE7E71D2BE5D0ADE726
:103EE00013B5436804465B6C9BB990F888301BB1EE
:103EF000C36DC2650A4619460DF1070304F140007F
:103F000003F024F928B19DF80720216D2046FFF722
:103F100075FF02B010BD0000B2F5E13F38B50446B0
:103F20000D4608D101F0A0FD2A4601462046BDE815
:103F30003840FFF763BF38BD2DE9F74F91460D4676
:103F4000044619220021484606F058FB102D4FF078
:103F50000F03A8BF10254FF0000B4FF0010A40F2ED
:103F6000FF772C4EDFF8B08089F8003004EB450570
:103F7000AC424CD034F8023B18460193FDF7B2F93D
:103F80003146FDF7BFFB00283FD0019B1846FDF7E7
:103F9000A5F9FDF7E7FB80B2FDF7A4F93146FDF77F
:103FA000EBF84146FDF7F2F9FDF7DCFB80B2B842D1
:103FB00028BF38464FEADB039A44C3EB43135FFA4A
:103FC0008AFA0BEBC303DBB219F80A2000FA03F1FB
:103FD0000A4309F80A200AF1010119F801C0C3F1E6
:103FE000080240FA02F242EA0C0209F80120C3F189
:103FF00010020AF10201104119F801200B330243AB
:1040000009F801205FFA83FBB2E73046C1E703B04D
:10401000BDE8F08F00005C442771CD3F7047000081
:10402000B0F94C0070470000B0F94E007047000036
:10403000806D704790F8543013B190F8300070479D
:104040001846704713B50446FFF7C6FBFFF706F99D
:10405000002201230092064904F1640000F006F9F1
:10406000012384F8603084F8543002B010BD00BFE2
:104070002411002080F8601011B9643000F064B998
:104080007047000008B5FFF7A7FBFFF7F5F901201F
:1040900008BD000037B590F854500446A5B100F1B2
:1040A0003401502201A801F013FED4E90A010023D3
:1040B000226D994208BF9042C4E90A2301A814BFA7
:1040C0000125002501F020FE284603B030BD000088
:1040D00073B590F8544005460E4694B190F83030D0
:1040E000122BA8BF122399420EDA00F1340170227C
:1040F00001A801F0EDFD05EB460501A8AC8801F033
:1041000003FE204602B070BD0024FAE773B590F8B4
:10411000544005460E468CB1122A28BF122214467E
:1041200000F13401862201A801F0D2FD6200291DB0
:10413000304606F057FA01A801F0E6FD204602B02D
:1041400070BD0000F7B590F854300446002B46D0FF
:10415000FFF742FB94F860300546CBB1002701A978
:10416000D4F8B800019701F05BFF014680B1019ED1
:10417000072E0DD9F6087200284692B294F8C03086
:10418000FFF70CFAF100D4F8B80001F0C9FEE6E739
:104190002846FFF70BFB10B3BE2204F1340101A83F
:1041A00001F096FD01F060FC20652846FFF738F924
:1041B0001228A8BF1220C2B284F83020211D284640
:1041C000FFF738F92846FFF73FF9A4F84C002846D6
:1041D000FFF746F9A4F84E0001A801F095FD03B0E1
:1041E000F0BD000038B50546044655F8040B202103
:1041F00005F0B4FE2A46236803F1200153F8040BAE
:104200008B4242F8040BF9D1A36A5A68136823F071
:104210000F031360A36A1A68597B0E238B40536007
:10422000A36A5A68236DDB684C339360A36A2268E3
:104230005B68DA600822A36A5B685A60A36AE26A74
:104240005B681A60A36A5A68136843F0010313603D
:10425000606D01F04BFE1F2806D92946606D2022B3
:10426000BDE8384001F0BABE38BD0000012AF8B5FB
:1042700004460E4615461F4601D90020F8BD2F4BB7
:1042800000221B682021586D03681B6D9847206031
:104290000028F2D02665202383F31188284A23467C
:1042A0000C21384603F0E4FE0023A06283F311885A
:1042B000A26A5168F2684C328A6040F68A22E26251
:1042C000A26A21685268D1600821A26A52685160CE
:1042D000A26AE16A526811601A4AC4E90E33236483
:1042E000626384F8445001230DBB4FF4007284F8DC
:1042F0003050A26484F85C3004F13001206D04F089
:10430000FFFC40F20D12236D2946DB689A64A36A14
:104310005A68136843F001031360236D0222D868C2
:1043200005F0E0FD206D04F0F9FC0120A6E784F81B
:1043300030304FF48063A364DEE700BFEC0600205A
:10434000E541000840420F0010B50446006D04F03E
:10435000F3FCA36A5A68136823F00F031360A36A7F
:10436000597B1A680E238B40536010BD70470000C4
:1043700070470000002070470020704713B56B465F
:1043800083E8060000F1140493E8030084E80500C4
:1043900002B010BD0020704713B56B4683E80600DD
:1043A00000F10C0493E8030084E8050002B010BD9E
:1043B0000023C0E90333704782B002AB03E9060073
:1043C00002B070477047000000207047704700003F
:1043D00000207047002070477047000000207047A1
:1043E0000020704782B002A901E90C0002B07047BA
:1043F0000F2070470F207047012070477047000062
:10440000002070477047000070470000012070478F
:10441000012070470120704728307047002082B08B
:1044200002A901E90C0002B07047000000207047AB
:104430000020704700207047002070470020704720
:104440007047000000207047704700007047000070
:1044500038B5084B0446036090F8BC3043B9D0F837
:10446000B8502DB1284601F019FD284601F078FB1F
:10447000204638BD6CA8000810B50446302001F075
:1044800069FB70B1002302220371C0E90333C0E964
:104490000533037A62F302030372034B0360034B99
:1044A00083622060204610BD34A9000824AC0008B7
:1044B0000022026070470000002202607047000086
:1044C00010B5044B04460360406A08B101F04EFB8E
:1044D000204610BDA0A8000810B50446FFF7F0FF65
:1044E000204601F03DFB204610BD00001C4A10B5DF
:1044F00082601C4A0446C2601B4A1C4B02611C4A73
:10450000036042611B4A1C4B82611C4A4360C261CA
:104510001B4A02621B4A42621B4A82621B4AC262F7
:104520001B4A0263002242631A4A82631A4AC0E9A4
:104530000F231A4B43641A4B83641A4BC3641A4B00
:1045400003651A4B43651A4B83651A4BC3651A4BB7
:10455000036601F081FA194B2046236010BD00BFAD
:10456000780900208009002088090020F4A80008AC
:10457000900900209809002070090020A00900205F
:10458000A8090020B0090020B8090020680A00200E
:104590006C0A0020680B0020640A002080070020BD
:1045A0008807002058080020700A0020C009002059
:1045B00084040020800400206C0B0020DCA900088B
:1045C00008B5202383F31188074B1B689A68596B41
:1045D0008A4201D0824200D29860586305F074F993
:1045E000002383F3118808BD50080020254D264E76
:1045F0002B60B269254B80B5B4201A6005F096FA9D
:1046000005F0AAFC224B00211F683846FEF77CFD0E
:1046100003684FF4E1315B6A9847B86B03681B6825
:104620009847386D03681B6898470A20FFF7C8FF52
:1046300005F0DAFC40B11321164805F0E5FC4C22E8
:104640001449881805F0CEFF0123134C2868A37382
:1046500003681B68984705F093FC204602F09AFF18
:10466000386D03681B6B9847B3690C4AB4209A6194
:1046700005F05CFA286803685B689847204602F0FA
:1046800089FFF7E754080020341300205008002069
:10469000EC060020C4090020700A0020C8A9000808
:1046A000014B1868704700BF5008002010B5054C3A
:1046B0002368DB0704D40448FFF718FF01232360B5
:1046C000014810BD7C070020700B002038B53C4825
:1046D00002F014F83B4802F011F83B4802F00EF8E3
:1046E0003A4802F00BF83A4802F008F8394802F06C
:1046F00005F8394802F002F8384801F0FFFF384861
:1047000001F0FCFF374801F0F9FF374B374A3848D2
:104710001A60384B384A394C1A6001F057FF384854
:1047200001F088FF374803F0CFFA2046364B2422A9
:1047300040F8043B002105F061FF04F1340002F071
:10474000C9FF4FF0FF33E3640023C4E92D33012395
:10475000142084F8BC3001F0FDF9054618B14FF47F
:10476000816101F089FBC4F8B8500025274A284927
:1047700084F8BC50214805F0C3FE264C3023204667
:104780002371254B40F8103B02F0A4FF4FF4C8738F
:10479000C4F8A83001231D4A2049204684F800317E
:1047A00005F0AEFE1E4802F095FE184A1D491C4851
:1047B00005F0A6FE1C4B1D4A83F89C501A6038BDBC
:1047C0007009002078090020800900208809002055
:1047D0009009002098090020A0090020A8090020C5
:1047E000B0090020B8090020680A002000A90008CC
:1047F000680B00206C0A002094A90008880700209C
:10480000640A0020800700206CA80008040F002024
:10481000514400085808002060AA000849440008D4
:10482000700A00204D440008C0090020E0AF0008D5
:10483000704700007047000000207047704700007C
:104840007047000070470000002070470048704724
:104850000000C84270470000704700007047000029
:10486000002070477047000070470000002070472C
:10487000704700000187428770470000038F0B805C
:10488000438F01201380704770B50546048F08469A
:10489000FCF724FD06462046FCF724FD0146304681
:1048A000FCF76AFC0146FCF769FC0646688F001BB2
:1048B000FCF718FD01463046FCF71CFE4FF07E5118
:1048C000FCF75AFC70BD000090F83C30D940C0F8AD
:1048D0001011704701232DE9F0479E4690F83C7077
:1048E00040F201380020DFF848C0F9400CF104091B
:1048F00003EB0C042246002509EB030A12F8016BB6
:104900000EFA06F60E4218BF01255245F6D145B102
:1049100014F8015B0EFA05F50D4208BF28439442D6
:10492000F6D103F580734345E2D1B840BDE8F08786
:10493000D80B00200F299FBF90F83C30C91AC9B28C
:1049400000EB410194BFB1F8640000207047000003
:104950000F299ABF203130F8110000207047000065
:10496000102A28BF1022F8B505460E461746002427
:10497000E1B2B94207D22B6828461B6C984726F84B
:1049800014000134F4E7F8BD012380F8C430704707
:1049900000207047002070470020704770470000DB
:1049A000012380F80231184670470000022380F886
:1049B0000231704770470000F8B506460F460C4CB0
:1049C00004F54075E36DD6F8C82013420AD14BB107
:1049D000A16894F87230B1FBF7F1E16013B1E06BBC
:1049E00004F0F0F904F58074AC42EBD1F8BD00BFDF
:1049F000D80B0020102A28BF102210B490F83C30A9
:104A00000C46934209D2D21AD2B200F1640152008C
:104A100004EB430010BC05F0E5BD10BC704700007E
:104A20002DE9F04F89B0524B8046D3F8009002AF89
:104A3000D9F850000D46036816465B6B98477861BD
:104A400058B94C4B32462946D9F8540001F0DCF9EC
:104A500001201C37BD46BDE8F08F98F83C104FF0A0
:104A6000000E01F10C03FB6001F1130303F4FC736E
:104A7000ADEB030D02AC234601F10B02224403F817
:104A800001EBA2EB030CBCF1000FF8DA00239A460D
:104A9000DFF8F0C00CF105027A600CEB030292F82B
:104AA00058B0BBF1000F18D0334A02EB030E7A68FE
:104AB0001A44BA601EF8012BFF2A0BD00A44D2B266
:104AC0003A61D7E90320824282BF0246D7F814A098
:104AD00004F802B0BA689645ECD103F58073B3F5DB
:104AE000407FDAD1D9F85400BAF1000F05D1234B39
:104AF0003246294601F088F9AAE73246204B29467A
:104B000001F082F94FF00109002298F83C3003F1DE
:104B10000C0189451AD204EB090313F8013C14F87F
:104B2000091099420BD07BB10132D2B20092CDF87C
:104B3000049032462946404601F026F84A4609F1DB
:104B400001095FFA89F9E0E74A46F8E70B33DBB27F
:104B5000E35C002B3FF47CAF0132C9B2D2B20191C9
:104B6000009229463246404601F00EF870E700BF39
:104B7000EC06002030AA0008D90B002044AA000847
:104B800050AA0008D80B0020F8B5044690F83CC0A5
:104B90002548174601220646A1EB0C01C9B28A40FE
:104BA00000F5407E90F85850042D1AD0C56D2A4269
:104BB00017D00025421C12F801EB8E4508BF80F883
:104BC000E6500135EDB2042DF5D1E062F26D23FA25
:104BD0000CF313420DD023682046DB6F984700206A
:104BE00021E000F580707045DCD1E06A0028F2D148
:104BF00019E0D6F85C211342EDD1D6F85C221342BD
:104C0000E9D10A4DFF20AB6923635B6B636304F05A
:104C10008DFF074A0120B2FBF7F2E36AA3F8E42014
:104C2000AA69044B1A61F8BDD80B00203413002088
:104C300040420F00D80E0020642A10B521D901B3DC
:104C40001C4B93F85840023C022C1AD993F8584157
:104C5000023C022C15D993F85832023B022B10D992
:104C600001FB02F380F8AC109BB2B3F5487F10D281
:104C700090F8AC300133DBB280F8AC3053439BB2D8
:104C8000F3E74FF47A73C0F8A830002380F8AC3013
:104C900010BDB3F57A6F07D94FF47A6393FBF2F343
:104CA00080F8AC3053439BB2034AB2FBF3F3C0F835
:104CB000A830EDE7D80B002040420F002DE9F74364
:104CC00090F801310546002B5FD10126304C04F5E8
:104CD0004077A4F10508631FA3EB0803C3F3072380
:104CE00006FA03F384F85360C4F8D730221F12F891
:104CF000013BFF2B10D095F83D1001338B42B8BF1C
:104D00000B4685F83D3012F8013C06FA03F1D4F861
:104D100057300B43C4F85730A242E8D1D4F857308B
:104D200033B1E11CD4F8370004F02AF884F86D6040
:104D30004FF0000904F5807444F8619CBC42CAD16C
:104D4000012405F1E80004F017FC95F83C102B68ED
:104D500004FA01F10139C5F8BC9081F47F415B6828
:104D6000322281F0FF01284698470A4B85F802411C
:104D70001B68094A186D01920368009502AA5B6AD4
:104D800012E90600984785F8014103B0BDE8F083B9
:104D9000DD0B0020EC060020215500082DE9F04134
:104DA0000C4691F858C0896FD4E902658BB2B3F50F
:104DB000C87F02D8BCF1030F20D1314BA360E06B58
:104DC000DFF8C0E0426843691268B3FBF2F3013BCD
:104DD000B3F5803FA26806D247683F6803FB0773BC
:104DE0004769BB420DD072450BD95208A260426898
:104DF00043691268B3FBF2F3013BE9E7214BA3607F
:104E0000DDE7ACF1020CBCF1010F8BBF89B20023CE
:104E1000B2FBF1F1E36088BFE160234600214FF06F
:104E2000010E4FF0100804F1200C5F690833022FC7
:104E300008BFC3F80CE0DF6808BF0121202F04BFC2
:104E4000C3F80C8001219C45EFD1964294F8723052
:104E50000AD1E268AA4207D14BB131B9E168E06BEF
:104E6000BDE8F04103F0AEBF0BB103F09BFF04F1CE
:104E70000801E06B03F084FF012384F87230EDE752
:104E800000127A0040420F002DE9F84390F83C30C0
:104E9000074631FA03F6904620D0124C04F54079CB
:104EA000B8F5C87F1CD994F85830042B0CBF454680
:104EB0004FF4C875E36D1E420CD021463846A567F5
:104EC000FFF76CFF322D81BFD7F8C830E26D134376
:104ED000C7F8C83004F580744C45E1D1BDE8F883CB
:104EE0004546E7E7D80B00200F29F0B51CD890F80D
:104EF0003C308B4218D8C91A00230C4DC9B26F1C24
:104F000000245819FE1816F801EB5FFA84FC8E4550
:104F100002D182F800C0F0BD0134042CF3D103F5B6
:104F20008073B3F5407FEBD10020F4E7D80B00206D
:104F300007B50DF10702FFF7D7FF48B1C36B5A68F9
:104F40009B681068B0FBF3F080B203B05DF804FB1F
:104F50003220FAE737B50DF1070204460D46FFF798
:104F6000C3FF50B194F83C10236E6D1A0121A94083
:104F70000B432366036E1943016603B030BD000086
:104F800073B50DF1070205460E46FFF7ADFF044667
:104F900080B19DF80710C06B03F030FF95F83C100E
:104FA0002B6E761A0121B140C9430B402B66236E4C
:104FB0001940216602B070BD2DE9F743994690F87B
:104FC0000131804615460A9E03F0FF0723B90027EA
:104FD000384603B0BDE8F083002AF8D0002302AAC7
:104FE00002F8053DC9B2FFF77FFF04460028EED066
:104FF00040F6CB0200F1B40101A800F069FE94F87C
:10500000AC3094F85820AB4201D34A451CD0093A41
:10501000012A48D9B9F1090F08D0B9F10A0F17D000
:10502000002784F8AC7084F8AE700DE094F8AC30D2
:105030009D424FF0090398BF94F8AC5084F8AE300D
:1050400098BFEDB284F8AC5001A800F05DFEBFE758
:1050500094F8AC3002359D424FF00A03D8BF94F863
:10506000AC5084F8AE30D8BFEDB2EDB2002384F876
:10507000AC50012584F8AD30601C10F8011B98F885
:105080003C200A4405FA02F232421EBF94F8AD10E9
:1050900005FA03F20A4303F1010318BF84F8AD20B7
:1050A000042BEAD1D0E70027CEE70000F7B590F84F
:1050B0000131064603F0FF0553B3C3687BB30DF11E
:1050C0000302C9B2FFF710FF044630B300F1B40188
:1050D00040F6D91201A800F0FBFD94F8AC30D3B132
:1050E000012294F85830093B934214D894F8B03018
:1050F00003F0FF074BB184F8AF204FF4004186F86E
:105100001421F06804F0FAF93D4601A800F0FCFD16
:10511000284603B0F0BD0025F7E70546F8E71D4631
:10512000F6E70000F8B591F8723005460C462BB151
:10513000C86B03F037FE002384F87230002394F824
:105140005820C4F8F030023AC4F8F430082A17D8CE
:10515000DFE802F04141053D3D3D3D3E3E00661C1D
:10516000671D16F8011BFF2908D095F83C30002276
:1051700019442B68C9B25B6928469847B742F0D1F9
:1051800021462846FFF70AFE94F85830F3B194F808
:105190007250DDB904F10801E06B03F0F1FD012369
:1051A0001E4684F87230E71817F8013BFF2B09D030
:1051B000226E06FA03F3134204D000222946E06B64
:1051C00003F00CFE0135EDB2042DEDD1F8BD012345
:1051D00084F85830D4E7E3600123A36794F8723071
:1051E000002BCDD00021E06B03F0ECFDC8E7000000
:1051F0002DE9F04105460F461646104C04F540785F
:10520000E16D95F83C2001FA02F23A4210D0012EED
:1052100082BFD5F8C8300B43C5F8C83094F8583071
:10522000B34205D02146284684F85860FFF77AFF3C
:1052300004F580744445E3D1BDE8F081D80B00202B
:10524000F8B500F1E8050446284604F0FBF900280B
:1052500045D000F00DFCD4E93867B94208BFB04230
:1052600008D21F4B311A1B6889B21B6D1A68184689
:1052700092689047202383F311881A4B01271869FD
:105280000023194E80B9F11891F85820023A012AEA
:105290000AD894F8FC204FEA232C22FA0CF2D20709
:1052A00042BFCA6B9269576103F58073B3F5407FC3
:1052B000E8D1002383F3118800F0DAFB0027B4F86B
:1052C000FE6016F1320247F10003861841EB030736
:1052D000C4E938672846BDE8F84004F0BDB9F8BD18
:1052E000EC060020D80E0020D80B00202DE9F04F4E
:1052F00090F83E2085B00546002A00F0A9804FF0C6
:10530000FF339340026E4FF0000822EA030301933B
:10531000514BC2461B68C146586D03681B6A9847CB
:1053200083464E4BEF6A03EB0806002F75D196F8C3
:105330007230002B71D001224FEA282302FA03F3C6
:10534000DBB200930292F3195A78F9B2FF2A61D0C6
:10535000029B03FA02F0336E18425BD0019BD340EC
:10536000DB0757D505EB4203BBF1010FB3F86440EF
:1053700009D195F83C301344D5F80C210BFA03F30E
:10538000134208BF002496F85830042B22D1B5F8F8
:1053900038C0F06BA4451BD26A8F8368A24206D93D
:1053A000A4EB0C046343A2EB0C02B3FBF2F31A462A
:1053B000039303F013FD039B1C4696F85800831ECD
:1053C000012B1FD8A14540D3009B43EA0A0A21E0E4
:1053D0000023ECE7032B0AD1B268214BF06BB2FB40
:1053E000F3F26243D20803F0F9FCE408E5E7042B8A
:1053F000E3D8B2681A4BF06BB2FBF3F2624303F0EE
:10540000EDFCDAE7A0F10903012BDBD900F000FC89
:105410000028D7D10137042F95D108F58078B8F549
:10542000407F7FF47EAF40F6FC03994528BF994644
:1054300085F8FCA0A5F8FE90BAF1000F08D0284628
:1054400005B0BDE8F04FFFF7FBBE1FFA84F9BBE7DC
:1054500005B0BDE8F08F00BFEC060020D80B00209F
:1054600040420F000F2930B429D801F1200320F861
:10547000132090F83C40A14221D390F80231012B37
:1054800005D1D0F80C518B402B4208BF0022091BDC
:10549000C9B200EB4103A3F8642090F83D308B4281
:1054A0000DD990F83E3001319942B8BF194690F8B5
:1054B000C43080F83E1013B930BCFFF717BF30BCC2
:1054C00070470000002280F8C420FFF70FBF0000E3
:1054D00038B5084B04461D68686D03685B689847DB
:1054E00020B96B6D94F8022183F84E2094F80201E4
:1054F00038BD00BFEC06002010B5044600F0B6FA37
:10550000D4F80431C31A632B07D9044BC4F804013F
:105510001B6813B11B89C4F80C3110BD080F0020A3
:10552000FFF7EABF0538C0B205289ABF024B53F80F
:1055300020000120704700BFE0A900082DE9F04FCE
:105540000F4687B080462749384600F0CFFA264CF0
:10555000DFF8A4B004F54079D8F82C30A3423ED04F
:1055600094F8580000F054FB94F8583090B3184663
:10557000FFF7D8FFDBF800504543E36B94F8580081
:105580005E6900F045FB29460246304600F046FBC6
:105590008246E36B94F840205E69144B94F85810EF
:1055A0004046B6FBF3F6059200F0E2FAE36B029593
:1055B0005B69059AB3FBFAF30D49CDE9000304F5E5
:1055C00080743346384600F091FA4C45C4D107B098
:1055D000BDE8F08F1846FFF7A5FFC500CDE7054DE4
:1055E000CBE700BFF8A90008D80B002040420F000D
:1055F00001AA000800EE02008804002091F858007B
:105600000938012814D801EB8202D2F8CC109DF899
:10561000000003EB4303C854D2F8CC109DF80400FB
:1056200019444870D2F8CC2013449DF808209A7091
:10563000704700002DE9F04F8DB007939DF858306A
:10564000064608939DF85C300691099390F8013165
:10565000904603F0FF05002B73D04FF000090CAA11
:1056600002F8059D9DF81810FFF73EFC044600283F
:1056700000F0B08090F8AF3003F0FF07002B40F04F
:10568000AB8000F1B40140F67A120BA800F020FBC9
:1056900094F8AC30002B50D094F8AC3098454CDAEC
:1056A00094F8583094F8AE20934202D0093A012A77
:1056B0001DD9093B012B40D8B8F1FF3F5DD1012333
:1056C000002784F8B03094F8AC20FBB29A4207F17E
:1056D00001077DD909999DF82B2002910899304640
:1056E0000191079900912146FFF788FFEBE704F14C
:1056F000CC0BDA46B94604F1DC0305935AF8040BE7
:1057000008B100F033FA4AF8049C94F8AC0000EBBE
:10571000400000F029FA4AF8040CB0B905465BF8DD
:10572000040B08B100F022FA059B4BF8045C5B45C2
:10573000F5D184F8AE5084F8AC500BA800F0E4FA30
:105740003D4628460DB0BDE8F08F059B9A45D5D162
:1057500001210698336894F8AE20D3F88030814058
:105760003046984794F8582094F8AE309A42A3D027
:1057700084F8AE9084F8AC90DFE794F8B03003F092
:10578000FF07ABB90123B94684F8B03094F8AC10E8
:10579000FBB299429DF82B2007F1010708D9CDE90A
:1057A0000199CDF8009021463046FFF727FFEDE73D
:1057B000099B9DF82B200293089B21460193079B90
:1057C000304600935FFA88F3FFF718FF2F46B4E7DF
:1057D0002F46B2E70546B4E74D46B2E72DE9F74F4D
:1057E0004FF4807A4A4C52460021204604F006FFCE
:1057F0004FF6017301254FF0FF0944F620664FF084
:1058000002086380434B444FE363444B04F1B4000C
:10581000A3642B44E36484F80490C4E902766561D0
:10582000E56184F8408084F8415084F8425001F0EA
:1058300051FF52460021A01804F0E0FE052384F831
:1058400002314FF0060384F80331072384F8043152
:10585000334B4FF0040BC4F83C310323314A04F5B9
:10586000DA70C4F848212A44C4F84C2102F2F93213
:10587000C4F850212A4484F840310193C4F85421DB
:1058800084F801B1C4F80871C4F80C61C4F814516B
:10589000C4F81C51C4F82451C4F82C5184F8415167
:1058A00084F8428101F016FF5246002104F5007091
:1058B00004F0A4FE019B04F52D7084F804321A4B09
:1058C00084F80192C4F83C324FF0060384F8423267
:1058D000164B84F80292C4F850322B4484F80382A9
:1058E000C4F80872C4F80C62C4F82452C4F82C52EC
:1058F00084F840B284F84152C4F8543201F0EAFE10
:1059000000200B4A0B4903B0BDE8F04F04F0F8BD8E
:10591000D80B00203C11002040420F00000801403D
:10592000581100200608014074110020080C0140A5
:10593000040F00209D49000870B51E46164B1C68D8
:1059400044B3636CDB0725D5144B1D686C6D94F86C
:105950004630C3B9124BE2619A69A4F8440084F856
:10596000461062B1936884F84730916939B194F96F
:10597000483023B9042204F1480000F07BF8094BB9
:105980005B68C4E90836686D1321BDE870400430D7
:1059900004F034BB70BD00BF080F0020EC060020EF
:1059A0003413002000ED00E030B589B0EFF3098337
:1059B0006C4603F12005224618685968083303C273
:1059C000AB421446F7D1EFF30581044BC9B29A6B91
:1059D0006020059BFFF7B0FFFEE700BF00ED00E091
:1059E00030B589B0EFF309836C4603F120052246F8
:1059F00018685968083303C2AB421446F7D1EFF375
:105A00000581044BC9B29A6BA420059BFFF794FF54
:105A1000FEE700BF00ED00E030B589B0EFF3098389
:105A20006C4603F12005224618685968083303C202
:105A3000AB421446F7D1EFF30581044BC9B25A6B60
:105A4000C820059BFFF778FFFEE700BF00ED00E0F0
:105A5000FEE70000FEE70000704700000FB408B545
:105A6000029803F0A1FFFEE704F00EBA04F030BA8A
:105A700004F0DEB970B50C460646114620461546C0
:105A800004F0DAFD854288BF0130024621463046E7
:105A9000BDE8704004F0A6BD70B5467B05460EBB60
:105AA0004468836804EB8404A40804F50074E21AD3
:105AB000914288BFCC180C4B621C1B682968586D3A
:105AC00003681B6E984718B901232B73304670BDCD
:105AD000AB68C5E90004E21A0021184404F08EFD09
