:020000040800F2
:1000000000060020A102000805110008BD1000082C
:10001000E5100008BD100008DD100008A30200086C
:10002000A3020008A3020008A3020008192B00087D
:10003000A3020008A3020008A3020008A30200080C
:10004000A3020008A3020008A3020008A3020008FC
:10005000A3020008A3020008E53F000811400008C1
:100060003D4000086940000895400008A3020008D0
:10007000A3020008A3020008A3020008A3020008CC
:10008000A3020008A3020008A3020008A3020008BC
:10009000A3020008A3020008A3020008C140000850
:1000A000A3020008A3020008A3020008A30200089C
:1000B000A3020008A3020008A3020008A30200088C
:1000C000A3020008A3020008A3020008A30200087C
:1000D000A3020008A302000899410008AD410008EE
:1000E00025410008A3020008A3020008A30200089B
:1000F000A3020008A3020008A3020008A30200084C
:10010000A3020008A3020008D5410008A3020008CA
:10011000A3020008A3020008A3020008A30200082B
:10012000A3020008A3020008A3020008A30200081B
:10013000A3020008A3020008A3020008A30200080B
:10014000A3020008A3020008A3020008A3020008FB
:10015000A3020008A3020008A3020008A3020008EB
:10016000A3020008A3020008A3020008A3020008DB
:10017000A3020008AD360008A3020008A30200088D
:10018000A3020008A3020008C1410008A30200085E
:10019000A3020008A3020008A3020008A3020008AB
:1001A000A3020008A3020008A3020008A30200089B
:1001B000A3020008A3020008A3020008A30200088B
:1001C000A3020008A3020008A3020008A30200087B
:1001D000A302000899360008A3020008A302000841
:1001E000A3020008A3020008A3020008A30200085B
:1001F000A3020008A3020008A3020008A30200084B
:10020000A3020008A3020008A3020008A30200083A
:10021000A3020008A3020008A3020008A30200082A
:10022000A3020008A3020008A3020008A30200081A
:10023000A3020008A3020008A3020008A30200080A
:10024000A3020008A3020008A3020008A3020008FA
:10025000A3020008A3020008A3020008A3020008EA
:10026000A3020008A3020008A3020008A3020008DA
:10027000A3020008A3020008A3020008A3020008CA
:10028000A3020008A3020008A3020008A3020008BA
:10029000A3020008A3020008A3020008A3020008AA
:1002A00002E000F000F8FEE772B63A4880F30888F2
:1002B000394880F3098839484EF60851CEF20001DA
:1002C000086040F20000CCF200004EF63471CEF22D
:1002D00000010860BFF34F8FBFF36F8F40F2000043
:1002E000C0F2F0004EF68851CEF200010860BFF374
:1002F0004F8FBFF36F8F4FF00000E1EE100A4EF604
:100300003C71CEF200010860062080F31488BFF330
:100310006F8F02F0C3FC02F063FC03F00FFC4FF0A0
:1003200055301F491B4A91423CBF41F8040BFAE784
:100330001C49194A91423CBF41F8040BFAE71A499B
:100340001A4A1B4B9A423EBF51F8040B42F8040B69
:10035000F8E700201749184A91423CBF41F8040BC6
:10036000FAE702F081FC03F077FC144C144DAC4228
:1003700003DA54F8041B8847F9E700F041F8114C00
:10038000114DAC4203DA54F8041B8847F9E702F038
:1003900069BC0000000600200022002000000008C8
:1003A0000000002000060020004600080022002077
:1003B0006C22002070220020EC4F0020A0020008D8
:1003C000A0020008A0020008A00200082DE9F04FDA
:1003D0002DED108AC1F80CD0D0F80CD0BDEC108AED
:1003E000BDE8F08F002383F311882846A047002042
:1003F00001F07CFFFEE701F0F7FE00DFFEE7000002
:1004000038B502F047FB044602F07CFB0546D0B944
:100410000F4B9C4219D001339C4241F2883412BFE9
:10042000054600240125002002F03EFB0DB100F03E
:1004300079F800F0E1FD00F077FC204600F02CF99F
:1004400000F070F8F9E70024EDE70446EBE700BFA1
:10045000010007B008B500F033FCA0F120035842BA
:10046000584108BD054B07B51B88022101A8ADF80E
:10047000043000F043FC03B05DF804FBB842000810
:1004800038B5202383F311881748C3680BB101F0F6
:10049000B5FF0023154A4FF47A71134801F070FF3D
:1004A000002383F31188124C236813B12368013BA6
:1004B0002360636813B16368013B63600D4D2A7864
:1004C00032B9636823B9022000F0FEFC3223636076
:1004D0002B78032B07D163682BB9022000F0F4FCC2
:1004E0004FF47A73636038BD7422002081040008E1
:1004F0009023002088220020084B187003280CD875
:10050000DFE800F008050208022000F0CDBC022060
:1005100000F0B8BC024B00225A60704788220020CD
:1005200090230020544B554A2DE9F04119680131C0
:1005300000F09F8004339342F8D1514C514B226814
:100540009A4240F29680504B9B6803F1006303F59A
:1005500000339A4280F08D80002000F001FC0220E0
:10056000FFF7CAFF494BD3F8E8200022C3F8E82080
:10057000D3F81011C3F81021D3F81011D3F8EC10F0
:10058000C3F8EC20D3F81411C3F81421D3F81411D4
:10059000D3F8F010C3F8F020D3F81811C3F81821DD
:1005A000D3F81811D3F8801041F00061C3F880101F
:1005B000D3F8801021F00061C3F88010D3F88010C8
:1005C000D3F8801041F00071C3F88010D3F8801088
:1005D00021F00071C3F88010D3F8803072B6264B3A
:1005E0002B490B601D682468BFF34F8FBFF36F8FDB
:1005F000284BC3F88420BFF34F8F5A6922F480320E
:100600005A61BFF34F8FD3F8802043F6E07CC2F3EA
:10061000C906C2F34E32B707520102EA0C08384647
:100620003146013948EA000E00F14040B1F1FF3F88
:10063000C3F874E2F5D1203A12F1200FEDD1BFF3E7
:100640004F8FBFF36F8FBFF34F8FBFF36F8F5A6919
:1006500022F400325A610022C3F85022BFF34F8FB8
:10066000BFF36F8F202383F31188AD4685F308888D
:100670002047BDE8F08100BF00000208200002080A
:1006800004000208FFFF0108002200200044025875
:1006900008ED00E000ED00E02DE9F04F99B0B84D15
:1006A0002022FF21009010A8AC6800F049FCB54A58
:1006B00001951378A3B90121B3481170C3602023B9
:1006C00083F31188C3680BB101F098FE0023AF4A91
:1006D0004FF47A71AC4801F053FE002383F3118884
:1006E000009B13B1AA4B009A1A60AA4B1A78029386
:1006F000032A04D00023A74A1370A54A53604FF081
:100700000009009ECA464D46C846012000F0CCFBB9
:1007100026B19F4B1B68002B00F04082002000F0A8
:10072000CFFA0490049B002BF2DB012000F0AAFB1F
:10073000049B213B202BE8D801A252F823F000BFF4
:10074000C5070008ED070008830800080B0700082C
:100750000B0700080B07000819090008110B000817
:100760000B0A0008710A0008A30A0008D10A000851
:100770000B070008E90A00080B0700085F0B0008D8
:10078000670800080B070008A30B0008D107000842
:10079000670800080B070008710A00080B0700082B
:1007A0000B0700080B0700080B0700080B070008E1
:1007B0000B0700080B0700080B0700088308000858
:1007C000F50B00080220FFF745FE002840F03782B5
:1007D000009B02210BA8B9F1000F08BF1E466E4B0B
:1007E0001B88ADF82C3000F089FA8EE74FF47A7050
:1007F00000F066FA071EEBDB0220FFF72BFE002855
:10080000E6D0013F052F00F21C82DFE807F0030B62
:100810000E11143718A80523042140F8343D00F0C8
:100820006DFA17E004215648F9E704215B48F6E722
:1008300004215B48F3E74FF01C08404608F1040828
:1008400000F090FA04210B900BA800F057FAB8F1D1
:100850002C0FF2D101234FF0000803FA07F747EA03
:100860000A0A5FFA8AFA00F0BDFB25B10AF00B0311
:100870000B2B08BF0026FFF7F5FD46E7042149488A
:10088000CDE7002DA4D00AF00B030B2BA0D1022042
:10089000FFF7E0FD074600289AD0434B186801286F
:1008A00018D1002500F05CFA0220FFF725FEEEB219
:1008B000304600F065FA8146B0B104993046013502
:1008C000A1F140025142514100F06AFA0028EED1F4
:1008D000B9460026354B02210BA83D461B88ADF8D2
:1008E0002C3000F00BFA10E74C460120FFF704FE15
:1008F000019B9B68A34206D9204600F033FA0130E1
:10090000E6D10434F4E70024029BB9463D461C704E
:1009100026461F4B5C60A6E7002D3FF459AF0AF056
:100920000B030B2B7FF454AF0220FFF7E5FD3220C1
:1009300000F0C6F9B0F1000BFFF64AAF1BF0030759
:100940007FF446AF019B0BEB040299688A423FF6A5
:100950003FAFBBF5807F3FF63BAF154ABB450392E7
:1009600028DD4FF47A7000F0ABF904900499002967
:10097000FFF62EAF0499039AB9540137EEE700BF92
:10098000002200208C230020742200208104000813
:100990009023002088220020BA4200080422002070
:1009A000082200200C22002070220020BC420008F7
:1009B0008C220020C820FFF74DFD074600283FF499
:1009C00007AF1F2C11D8C4F1200510AB24F0030091
:1009D0009E495D45184428BF5D462A4600F088FAC6
:1009E0002A46FF21994800F0ABFA4FEAAB0397493A
:1009F0002046DAB2039300F0ABFA054600283FF434
:100A000069AF039B04EB83042DE70220FFF722FD6F
:100A100000283FF4DDAE00F0DFF900283FF4D8AE47
:100A200000273B46019A9268BA421AD91F2F11D863
:100A3000109A01320ED027F0030218A90A4452F886
:100A4000202C0B92184604220BA9043700F05CFB03
:100A50000346E7E73846039300F084F9039B0B90C5
:100A6000F0E718A8042140F84C3D00F047F9FAE6F9
:100A700018A80023642140F8343D00F035F900281F
:100A80007FF4A6AE0220FFF7E5FC00283FF4A0AEFD
:100A90000B9800F099F918AB43F8480D042118465B
:100AA000E3E718A80023642140F8343D00F01CF966
:100AB00000287FF48DAE0220FFF7CCFC00283FF425
:100AC00087AE0B9800F082F918AB43F8440DE5E7C8
:100AD0000220FFF7BFFC00283FF47AAE00F08CF94B
:100AE00018AB43F8400DD9E70220FFF7B3FC00280C
:100AF0003FF46EAE0BA9142000F084F9074618A845
:100B0000042140F83C7D00F0F9F839460BA8ACE729
:100B1000322000F0D5F8071EFFF65AAEBB077FF46F
:100B200057AE019A07EB0803926893423FF650AE26
:100B30000220FFF78FFC00283FF44AAE27F003079E
:100B40004744B8453FF48FAE404608F1040800F032
:100B500009F904210A900AA800F0D0F8F1E74FF44F
:100B60007A70FFF777FC00283FF432AE00F034F9DA
:100B7000002869D0109B01330BD0082210A9002057
:100B800000F0E6F900285FD02022FF2110A800F035
:100B9000D7F9FFF767FC2E4801F0AEFB19B0BDE8AE
:100BA000F08F002D3FF414AE0AF00B030B2B7FF4F3
:100BB0000FAE18A80023642140F8343D00F094F8EB
:100BC000074600287FF404AE0220FFF743FC00280C
:100BD0003FF4FEAD0390FFF745FC41F288303E46FE
:100BE00001F08AFB0B9800F047FA00F0FBF9039B39
:100BF0001D468AE5322000F063F850287FF433AEBA
:100C0000322000F05DF844287FF42DAE322000F051
:100C100057F852287FF427AE322000F051F84C28C4
:100C200009D10220FFF716FC00283FF4D1AD094B93
:100C300001221A6017E646287FF415AEF1E7054653
:100C400011E64FF00008C3E52F4643E68C22002052
:100C5000A0860100702200202DE9F84F4FF47A752C
:100C600007460E4600245543DFF84C80DFF84C90D1
:100C700098F900305FFA84FA5A1C01D0A34210D1CF
:100C800059F82400324639460368D3F820B02B4681
:100C9000D847864205D1074B012083F800A0BDE864
:100CA000F88F0134042CE3D14FF4FA7001F024FBE7
:100CB0000020F4E7DC230020102200201422002072
:100CC00007B5002202AB012103F8012D02461846A8
:100CD000FFF7C2FF20B19DF8070003B05DF804FBE9
:100CE0004FF0FF30F9E700000A46042108B5FFF78E
:100CF000B3FF80F00100C0B2404208BD074B30B4E2
:100D00001A78074B53F822400A46014623682046CA
:100D1000DD69044BAC4630BC604700BFDC230020DB
:100D200014220020A0860100F8B50A4C00250A4EC6
:100D300001F086FD094F208030682388834207D95F
:100D400001F07AFD336805440133BD423360F3D9C5
:100D5000F8BD00BFDE23002098230020FFFF010024
:100D600001F04CBE00F1006000F5003000687047F3
:100D700000F10060920000F5003001F0C3BD0000FA
:100D8000054B1A68054B1B889B1A834202D91044F5
:100D900001F052BD0020704798230020DE23002080
:100DA00038B50446074D29B128682044BDE83840CD
:100DB00001F05ABD2868204401F044FD0028F3D01A
:100DC00038BD00BF9823002000207047014BC05859
:100DD000704700BF00E8F11F064991F8243033B195
:100DE00000230822086A81F82430FFF7C1BF0120E0
:100DF000704700BF9C230020014B1868704700BF5C
:100E00000010005C1C4BF0B51A681C4BC2F30B04BD
:100E1000120C1F885D68BC4293F9086003D09F895B
:100E2000BC4203D10C335D6893F908600023144C75
:100E30001F5B974208BFE61803F1040308BF96F949
:100E40000260102BF4D1441E013D0B460C44A3421A
:100E50000FD215F9010F5A1C18B102F8010C1346F4
:100E6000F5E72C20A242187001D29A1C5E70501A2D
:100E7000F0BD1A46FBE700BF0010005C24220020F2
:100E8000C0420008022804D1054B4FF080529A61FD
:100E900070470128FCD1034B4FF40022F7E700BF55
:100EA0000010025800040258022804D1044B4FF4E9
:100EB00080529A6170470128FCD1024B0822F8E762
:100EC0000010025800040258022805D1064A53694E
:100ED00083F48053536170470128FCD1034A53695E
:100EE00083F00803F6E700BF001002580004025820
:100EF000002310B5934203D0CC5CC4540133F9E70E
:100F000010BD000030B5441E14F9010F0B4638B176
:100F100093F900500131854202D112B1013AF3E751
:100F20001AB193F90020801A30BD1046FCE700008A
:100F300002460346981A13F9011B0029FAD170479B
:100F400002440346934202D003F8011BFAE77047BC
:100F50002DE9F047224C16460746884694F824208F
:100F60007ABBDFF87C90C6B394F824302BB92022EA
:100F7000FF2148462762FFF7E3FF94F8240041462B
:100F8000C0F1080504EB8000B54228BF35465FFA82
:100F900085FAAD00A6EB0A062A462F44FFF7A8FF04
:100FA00094F82430A844F6B29A445FFA8AFABAF167
:100FB000080F84F824A0D6D1FFF70EFF0028D2D165
:100FC00008E0236A03EB82038342CAD0FFF704FFE1
:100FD0000028C6D10020BDE8F0870120FBE700BF54
:100FE0009C230020024B1A78024B1A70704700BFF6
:100FF000DC23002010220020F8B5194C194800F01D
:1010000067FC2146174800F08FFC24681648D4F886
:101010009020164DD2F80438154E43F00203114FBC
:10102000C2F8043801F068F92046124900F088FD42
:10103000D4F890200024D2F8043823F00203C2F838
:1010400004384FF4E1332B6056F82400B84202D044
:10105000294600F09BFB0134042CF5D1F8BD00BFFC
:10106000D0430008E032002040420F00C42300209B
:1010700014220020F04300080C4B70B50C4C0646BF
:101080001D780C4B54F825209A420DD00A4B0021B4
:1010900018221846FFF754FF0660014654F8250051
:1010A000BDE8704000F072BB70BD00BFDC230020C3
:1010B00014220020E0320020C423002000B59BB0A1
:1010C000EFF3098168226846FFF712FFEFF305830B
:1010D000014B9B6BFEE700BF00ED00E008B5FFF79A
:1010E000EDFF000000B59BB0EFF309816822684670
:1010F000FFF7FEFEEFF30583014B5B6BFEE700BFDE
:1011000000ED00E0FEE7000030B50A44084D9142D2
:101110000DD011F8013B5840082340F30004013B77
:101120002C4013F0FF0384EA5000F6D1EFE730BD06
:101130002083B8ED026843681143016003B118478A
:1011400070470000024A136843F0C0031360704701
:1011500000440040024A136843F0C0031360704724
:1011600000480040024A136843F0C0031360704710
:101170000078004037B5274C274D204600F0FAFA9A
:10118000009404F1140000234FF40072234900F08E
:10119000BBF900944FF40072214904F13800214B4F
:1011A00000F034FA204BC4E91735204C204600F0FB
:1011B000E1FA009404F1140000234FF400721C497A
:1011C00000F0A2F900944FF400721A4904F13800BB
:1011D000194B00F01BFA194BC4E91735184C20467F
:1011E00000F0C8FA04F11400009400234FF40072D8
:1011F000144900F089F90094134B4FF4007213491D
:1012000004F1380000F002FA114BC4E9173503B0BD
:1012100030BD00BFE023002000E1F50524250020BB
:10122000242B002045110008004400404C240020DD
:1012300024270020242D00205511000800480040DC
:10124000B82400202429002065110008242F002044
:1012500000780040344B002908BF1946037C012B5D
:1012600030B511D1314B98423BD1314BD3F8E82006
:1012700042F40032C3F8E820D3F8102142F40032DF
:10128000C3F81021D3F810310A68036EC46D03EB64
:1012900052038166B3FBF2F34A68150442BF23F0A0
:1012A000070503F0070343EA4503E3608B6843F057
:1012B00040036360CB68510543F00103A36042F42F
:1012C000967343F0010323604FF0FF33236205D58B
:1012D00012F0102223D0B2F1805F22D080F8643067
:1012E00030BD144B98420BD1114BD3F8E82042F497
:1012F0008022C3F8E820D3F8102142F48022BFE70F
:101300000D4B9842C0D10A4BD3F8E82042F08042FE
:10131000C3F8E820D3F8102142F08042B0E77F23E1
:10132000DCE73F23DAE700BFEC420008E0230020BF
:10133000004402584C240020B82400202DE9F04736
:10134000C66D05463768F469200734621AD014F078
:10135000080F0CBF00218021E20748BF41F02001A7
:10136000A3074FF0200348BF41F04001600748BF8A
:1013700041F4807183F31188281DFFF7DBFE002301
:1013800083F31188E2050AD5202383F311884FF4F3
:101390000071281DFFF7CEFE002383F311884FF064
:1013A00020094FF0000A14F0200838D13B0616D56A
:1013B0004FF0200905F1380A200610D589F311886D
:1013C000504600F057F9002836DA0821281DFFF7AB
:1013D000B1FE27F080033360002383F31188790680
:1013E00014D5620612D5202383F31188D5E913237F
:1013F0009A4208D12B6C33B127F040071021281DE9
:10140000FFF798FE3760002383F31188E30618D5B1
:10141000AA6E1369ABB15069BDE8F047184789F36C
:101420001188736A284695F86410194000F0BCF9D9
:101430008AF31188F469B6E7B06288F31188F46919
:10144000BAE7BDE8F0870000F8B5154682680446A3
:101450000B46AA4200D28568A1692669761AB54270
:1014600007D218462A46FFF743FDA3692B44A36120
:101470000DE011D9AF1B32461846FFF739FD3A4649
:10148000E1683044FFF734FDE2683A44A261A368A2
:1014900028465B1BA360F8BD18462A46FFF728FDC7
:1014A000E368E4E7836893422DE9F04104460F4680
:1014B000154600D28568D4E90460361AB54207D2D1
:1014C0002A463946FFF714FD63692B4463610EE039
:1014D00013D9A5EB060832463946FFF709FD424607
:1014E000B919E068FFF704FDE26842446261A3684D
:1014F00028465B1BA360BDE8F0812A463946FFF70A
:10150000F7FCE368E2E7000010B50A440024C36179
:10151000029B8460C16002610362C0E90000C0E90F
:10152000051110BD08B5D0E90532934201D182689A
:1015300082B98268013282605A1C426119700021AE
:10154000D0E904329A4224BFC368436100F0F0FE40
:10155000002008BD4FF0FF30FBE7000070B52023EE
:1015600004460E4683F31188A568A5B1A368A26955
:10157000013BA360531CA36115782269934224BFE9
:10158000E368A361E3690BB120469847002383F326
:101590001188284607E03146204600F0B9FE0028B1
:1015A000E2DA85F3118870BD2DE9F74F05460F4645
:1015B00090469A46D0F81C90202686F311884FF06A
:1015C000000B144664B1224639462846FFF73CFF1B
:1015D000034668B95146284600F09AFE0028F1D02B
:1015E000002383F31188A8EB040003B0BDE8F08F5B
:1015F000B9F1000F03D001902846C847019B8BF337
:101600001188E41A1F4486F31188DBE7C160C361C7
:10161000009B82600362C0E905111144C0E900002B
:1016200001617047F8B504460E461746202383F340
:101630001188A568A5B1A368013BA36063695A1C22
:1016400062611E70D4E904329A4224BFE368636188
:10165000E3690BB120469847002080F3118807E02A
:101660003946204600F054FE0028E2DA85F311885E
:10167000F8BD0000D0E9052310B59A4201D1826877
:101680007AB982680021013282605A1C82611C781A
:1016900003699A4224BFC368836100F049FE204673
:1016A00010BD4FF0FF30FBE72DE9F74F05460F4621
:1016B00090469A46D0F81C90202686F311884FF069
:1016C000000B144664B1224639462846FFF7EAFE6D
:1016D000034668B95146284600F01AFE0028F1D0AA
:1016E000002383F31188A8EB040003B0BDE8F08F5A
:1016F000B9F1000F03D001902846C847019B8BF336
:101700001188E41A1F4486F31188DBE702684368F6
:101710001143016003B11847704700001430FFF710
:1017200043BF00004FF0FF331430FFF73DBF000010
:101730003830FFF7B9BF00004FF0FF333830FFF704
:10174000B3BF00001430FFF709BF00004FF0FF31B6
:101750001430FFF703BF00003830FFF763BF00000D
:101760004FF0FF323830FFF75DBF000000207047B8
:10177000FFF700BD044B036000234360C0E9023360
:1017800001230374704700BF0443000810B52023F1
:10179000044683F31188FFF75DFD022323740023C1
:1017A00083F3118810BD000038B5C36904460D46A7
:1017B0001BB904210844FFF7A9FF294604F11400CE
:1017C000FFF7B0FE002806DA201D4FF48061BDE867
:1017D0003840FFF79BBF38BD026843681143016082
:1017E00003B118477047000037B5446B41F6A405B4
:1017F00063591A681178042914D1217C022911D166
:101800001979012312898B4013420BD101A904F1EC
:101810004C0002F093F864590246019B217920683C
:1018200000F0E6F903B030BD143002F017B8000044
:101830004FF0FF33143002F011B800004C3002F0CA
:10184000E9B800004FF0FF334C3002F0E3B800007D
:10185000143001F0E5BF00004FF0FF31143001F00B
:10186000DFBF00004C3002F0B5B800004FF0FF328F
:101870004C3002F0AFB8000070B541F6A406054642
:10188000825913681978042901D0012070BD017CA8
:101890000229FAD1527901205C8990400440F4D1A8
:1018A00005F1140001F076FF02460028EDD0AD5995
:1018B0004FF440732868697900F088F92046E5E71D
:1018C000406BFFF7D9BF0000002070477047000051
:1018D0007FB5124B012504260446036000230574DE
:1018E00000F1840243602946C0E902330C4B0290A8
:1018F000143001934FF44073009601F027FF094B19
:1019000004F69442294604F14C000294CDE90063A8
:101910004FF4407301F0EEFF04B070BD2C4300089B
:10192000C1180008E91700080A68202383F311880A
:101930000B790B3342F823004B79133342F8230021
:101940008B7913B10B3342F8230041F6A403C15045
:1019500002230374002383F31188704738B5037F93
:10196000044613B190F85430ABB90125201D022173
:10197000FFF732FF04F1140025776FF0010100F04A
:10198000E3FC84F8545004F14C006FF00101BDE811
:10199000384000F0D9BC38BD10B5012104460430F0
:1019A000FFF71AFF0023237784F8543010BD00009E
:1019B00038B504460025143001F0E0FE04F14C0077
:1019C000257701F0AFFF201D84F854500121FFF767
:1019D00003FF2046BDE83840FFF74EBF90F8803047
:1019E00003F06003202B07D190F88130202B03D324
:1019F000212B03D9222B09D000207047054B4367C8
:101A0000072383670023C367012070470023C0E9D1
:101A10001D33F8E73C22002073B541F6A4050446C7
:101A200043591A681178042919D1017C022916D169
:101A30001979012312898B40134210D100F14C0611
:101A4000304602F02FF850B101A9304601F076FF80
:101A500064590246019B2179206800F0C9F802B060
:101A600070BD000001F10B03F7B550F823400546A7
:101A70000E46F4B1202383F3118805EB8607201D61
:101A800008214C34FFF7A8FEFB685B691B6813B1A3
:101A9000204601F061FF01A9204601F04FFF0246F8
:101AA00048B1019B3146284600F0A2F8002383F399
:101AB000118803B0F0BDFB685A691268002AF5D09E
:101AC0001B8A013B1340F1D105F18002EAE70000D7
:101AD000133138B550F82140E4B1202383F3118845
:101AE00041F6A403E2581368527903EB8203DB68E2
:101AF0009B695D6845B104216018FFF76DFE2946BA
:101B000004F1140001F050FE2046FFF7B5FE00235B
:101B100083F3118838BD00007047000001F034B92C
:101B2000012300F1300200F15001037000234360F3
:101B300042F8043B8A42D361FAD1836070470000C7
:101B400038B50446202383F31188002500F10C03E7
:101B500000F13002416043F8045B9342FBD1204620
:101B600001F034F90223237085F3118838BD000099
:101B700070B500EB8103054650690E461446DA60E5
:101B800018B110220021FFF7DBF9A06918B110226B
:101B90000021FFF7D5F931462846BDE8704001F035
:101BA00027BA0000028902F001020281428902F094
:101BB000010242810022C0E90422C0E90622C0E9F4
:101BC0000822C0E90A2201F0ABBA0000F0B40125F6
:101BD00000EB810447898D40E4683D43A469458159
:101BE00023600023A2606360F0BC01F0C7BA00006C
:101BF000F0B4012500EB810407898D40E4683D4382
:101C00006469058123600023A2606360F0BC01F079
:101C10003DBB0000022300F10C0200F1300110B5C1
:101C2000037004460023C0F88830836042F8043B08
:101C30008A42FBD184F87030204601F06DF9636868
:101C40001B6823B120460021BDE81040184710BD95
:101C5000037880F88C300523037043681B6810B547
:101C600004460BB1042198470023A36010BD000077
:101C7000436890F88C201B6802700BB1052118474F
:101C80007047000090F8703070B5044613B100231F
:101C900080F8703004F18002204601F065FA636834
:101CA0009B6863BB94F8803013F0600515D194F8FD
:101CB000812003F07F0343EA022340F20232934281
:101CC00000F008815BD8022B00F0DB803FD8002BAE
:101CD00000F08680012B00F0CE800021204601F02C
:101CE000FBFC0021204601F0EBFC63681B6813B18C
:101CF000062120469847062384F8703070BD2046A0
:101D000098470028CED094F8872094F8863043EA8C
:101D10000223A26F9A4288BFA36794F98030A56F0F
:101D2000002B4FF0200380F2F780002D00F0E680BA
:101D3000092284F8702083F3118800212046D4E919
:101D40001D23FFF755FF002383F31188D6E7B3F572
:101D5000817F00F0AB80B3F5407F48D0B3F5807F42
:101D6000BBD194F88230012BB7D1B4F8883023F07E
:101D70000203A4F88830C4E91D55E567C3E740F2C3
:101D8000016293421DD8B3F5C06F3AD2B3F5A06F8C
:101D9000A3D1B4F88030B3F5A06F0ED194F882309F
:101DA000204684F88A3001F015F963681B6813B186
:101DB000012120469847032323700023C4E91D33E3
:101DC00013E0B3F5106F32D040F60242934252D086
:101DD000B3F5006F81D104F18B036367012324E025
:101DE00004F1880262670222A267E3678BE794F836
:101DF0008230012B7FF471AFB4F8883043F00203D6
:101E0000B7E794F885202046616894F884304E68DE
:101E100043EA022394F8831094F88220B047002804
:101E20003FF45BAF436863670368A367A5E7237864
:101E3000042B10D1202383F311882046FFF7B2FE34
:101E400085F311886368032184F88B501B68217027
:101E50000BB12046984794F88230002BADD084F81F
:101E60008B300423237063681B68002BA5D00221EC
:101E700020469847A1E7354B63670223A3670023F9
:101E8000B3E794F8843020461D0603F00F010AD50D
:101E900001F05CF9012804D002287FF41EAF2C4B1E
:101EA000EAE72C4BE8E701F043F9F3E794F88230D6
:101EB000002B7FF412AF94F8843013F00F013FF43D
:101EC0007CAF1A06204602D501F01EFC75E701F032
:101ED0000FFC72E794F88230002B7FF4FEAE94F88A
:101EE000843013F00F013FF468AF1B06204602D583
:101EF00001F0F2FB61E701F0E3FB5EE7142284F8F6
:101F0000702083F311882B462A4629462046FFF786
:101F10005DFE85F31188F1E65DB1152284F870202D
:101F200083F3118800212046D4E91D23FFF74EFEDC
:101F300009E70B2284F8702083F311882B462A4688
:101F400029462046FFF754FEE3E700BF5C43000844
:101F5000544300085843000838B590F870300446E0
:101F6000152B39D8DFE803F03E38383838383E389A
:101F7000380B293938383838383838383E3E90F8F8
:101F8000871090F88620836F42EA0122934214D290
:101F9000C268128AB3FBF2F502FB15356DB9202336
:101FA00083F311882B462A462946FFF721FE85F345
:101FB00011880A2384F870300EE0142384F87030FE
:101FC000202383F31188002320461A461946FFF781
:101FD000FDFD002383F3118838BDC36F03B198471B
:101FE0000023E7E7002101F077FB0021204601F004
:101FF00067FB63681B6813B10621204698470623D8
:10200000D8E7000090F87020152A38B5044617D894
:102010000123934040F6416213421ED113F4801510
:102020000FD19B020CD50B2380F87030202383F353
:1020300011882B462A462946FFF7DAFD85F31188D9
:1020400038BDC3689B695B68002BF9D1C36F03B1CE
:102050009847002384F87030F2E7002101F03CFB40
:102060000021204601F02CFB63681B6813B1062198
:10207000204698470623EDE7024B0022C3E90033D0
:102080009A60704724310020002382680374054B56
:102090001B6899689142FBD25A68036042601060E5
:1020A000586070472431002008B5202383F311883D
:1020B000037C032B05D0042B0DD02BB983F311889F
:1020C00008BD436900221A604FF0FF334361FFF7F8
:1020D000DBFF0023F2E7D0E900231A6002685360B7
:1020E000F2E70000002382680374054B1B689968BF
:1020F0009142FBD85A680360426010605860704794
:1021000024310020054B196908741868026853606F
:102110001A60186101230374FEF758B924310020B6
:102120004B1C30B5054687B00A4C10D0236901A876
:10213000094A00F025F92846FFF7E4FF049B13B194
:1021400001A800F05BF92369586907B030BDFFF7BB
:10215000D9FFF8E724310020A920000838B50C4D3C
:10216000044641612B6981689A68914203D8BDE8B1
:102170003840FFF789BF1846FFF7B4FF01232C61F1
:10218000014623742046BDE83840FEF71FB900BF62
:1021900024310020044B1A681B6990689B689842A0
:1021A00094BF0020012070472431002010B5084C56
:1021B000236820691A6854602260012223611A741E
:1021C000FFF790FF01462069BDE81040FEF7FEB81A
:1021D0002431002008B5FFF7DDFF18B1BDE8084045
:1021E000FFF7E4BF08BD0000FFF7E0BFFEE7000017
:1021F00010B50C4CFFF740FF00F0B4F880220A49FC
:10220000204600F03BF8012344F8180C037400F05A
:1022100093FC002383F3118862B60448BDE81040A4
:1022200000F04CB84C3100206043000868430008BF
:1022300000F020B9EFF3118020B9EFF305832022DD
:1022400082F311887047000010B530B9EFF30584B0
:10225000C4F3080414B180F3118810BDFFF7BAFF6E
:1022600084F31188F9E70000034B59685A68521A41
:102270009042FBD8704700BF001000E0826002224D
:10228000028270478368A3F17C0243F80C2C026938
:1022900043F83C2C426943F8382C074A43F81C2C7D
:1022A000C268A3F1180043F8102C022203F8082C8E
:1022B000002203F8072C7047E503000810B520231F
:1022C00083F31188FFF7DEFF00210446FFF746FF86
:1022D000002383F31188204610BD0000024B1B69C8
:1022E00058610F20FFF70EBF24310020202383F315
:1022F0001188FFF7F3BF000008B50146202383F3E0
:1023000011880820FFF70CFF002383F3118808BD14
:1023100049B1064B42681B6918605A6013604360FC
:102320000420FFF7FDBE4FF0FF307047243100203E
:102330000368984206D01A680260506018465961D6
:10234000FFF7A2BE7047000038B504460D4620686E
:10235000844200D138BD036823605C604561FFF7AB
:1023600093FEF4E7054B4FF0FF3103F11402C3E98C
:1023700005220022C3E90712704700BF2431002064
:1023800070B5C0E903230C46054601F0C1FB1A4BAA
:1023900019461E4651F8142F8A420DD118620A2C94
:1023A0002CBF00190A302A60C5E90124C3E905558C
:1023B000BDE8704001F096BB196A431AE31838BFB4
:1023C0001C469368A34202D9081901F09BFB73696C
:1023D0009A6894420CD8AC6099685A68091B2B60C3
:1023E0006A6015605D6099604FF0FF33F36170BD06
:1023F000A41A1B68ECE700BF2431002038B51C4B41
:1024000001685A691D4690420DD044682160002140
:1024100002685460C16091688068014491604FF027
:10242000FF32DA6138BD1A4642F8141F4A600021B3
:102430005B69C160934203D1BDE8384001F05CBBE9
:102440009A6881680A449A602C6A01F061FB6A69A3
:10245000001B92688242E5D9111A092998BF00F140
:102460000A02286ABDE83840104401F04BBB00BFA7
:10247000243100202DE9F041184D002705F1140604
:102480006C6901F045FB2A6AA368811A8B4216D851
:102490001344D4F80C802B62D4E900231A6022681C
:1024A00053606B69E760B34201D101F025FB87F30C
:1024B00011882069C047202383F31188E0E76A6907
:1024C000B24208D05B1ABDE8F0410A2B2CBFC018FD
:1024D0000A3001F017BBBDE8F08100BF24310020B5
:1024E00000207047FEE70000704700004FF0FF300B
:1024F00070470000022906D0032906D001290648AA
:1025000018BF0020704705487047032A9ABF044847
:1025100000EBC200002070474C4400080044000853
:102520004C22002070B59AB006460846144601AD0C
:10253000294600F0BDF82846FEF7FAFCC0B2431C5D
:102540005B00C6E9003423700323023404F8013C25
:1025500000231946DAB20234904201D81AB070BD95
:10256000EA5C013304F8011C04F8022CF2E70000D5
:1025700008B5202383F311880348FFF74DFA0023A1
:1025800083F3118808BD00BFE032002090F880304E
:1025900003F01F02012A07D190F881200B2A03D1F2
:1025A0000023C0E91D3314E003F06003202B0AD19F
:1025B000B0F884303BB990F88120202A03D3212A37
:1025C00003D9222AEDD0FFF709BA034A426707224E
:1025D0008267C367012070474322002010B504467C
:1025E000052916D8DFE801F016150316161D20235D
:1025F00083F311880E4A0121FFF7BAFA20460D4AEB
:102600000221FFF7B5FA0C48FFF7D2F9002383F354
:10261000118810BD202383F311880748FFF79EF926
:10262000F4E7202383F311880348FFF7B5F9EDE7BA
:1026300088430008AC430008E032002038B50C4D58
:102640000C4C2A460C4904F10800FFF76BFF05F11A
:10265000CA0204F110000949FFF764FF05F5CA72C8
:1026600004F118000649BDE83840FFF75BBF00BF22
:10267000B84B00204C220020D8430008DD4300085E
:10268000E643000870B5044608460D46FEF750FCC8
:10269000C6B22046013403780BB9184670BD3246E5
:1026A0002946FEF72FFC0028F3D10120F6E70000B1
:1026B0002DE9F84F04460D46FEF73AFC2849C6B20C
:1026C0002046FFF7DFFF08B1033EF6B2254920465A
:1026D000FFF7D8FF08B11036F6B2632E0DD8DFF839
:1026E0008080DFF88090204FDFF884A0DFF884B08E
:1026F000267846B92E70BDE8F88F21462846BDE8F9
:10270000F84F01F0D1BD252E25D1072241462046A4
:10271000FEF7F8FB28B9DBF80030073445F8043B36
:10272000E6E7082249462046FEF7ECFB98B9AA1CCA
:102730000E4B197802320909C95D02F8041C13F81E
:10274000011B01F00F015345C95D02F8031CF0D1D4
:1027500018350834CCE72E7001340135C8E700BFC6
:102760006C440008E64300087944000800E8F11FC3
:102770000CE8F11F74440008BFF34F8F044B1A6933
:102780005107FCD1D3F810215207F8D1704700BF90
:102790000020005208B50D4B1B78ABB9FFF7ECFFDA
:1027A0000B4BDA68D10704D50A4A5A6002F1883225
:1027B0005A60D3F80C21D20706D5064AC3F8042183
:1027C00002F18832C3F8042108BD00BF164E002074
:1027D000002000522301674508B5114B1B78F3B95F
:1027E000104B1A69510703D5DA6842F04002DA60EB
:1027F000D3F81021520705D5D3F80C2142F040023E
:10280000C3F80C21FFF7B8FF064BDA6842F001026B
:10281000DA60D3F80C2142F00102C3F80C2108BDA4
:10282000164E0020002000520F289ABF00F580604D
:1028300040040020704700004FF400307047000053
:10284000102070470F2808B50BD8FFF7EDFF00F5F3
:1028500000330268013204D104308342F9D10120EF
:1028600008BD0020FCE700000F2838B5044645D815
:10287000FFF7E0FC0546FFF77FFFFFF78BFF2048DF
:102880004FF0FF33072C4361C0F8143120D80361A7
:10289000FFF772FF230243F02403C360C36843F0D1
:1028A0008003C36003695A07FCD4FFF765FF204625
:1028B000FFF7BAFF4FF4003100F006F9FFF78CFF85
:1028C0002846FFF7C1FC2046BDE83840FFF7BABFF5
:1028D000C0F81031FFF750FFA4F108031B0243F0CA
:1028E0002403C0F80C31D0F80C3143F08003C0F859
:1028F0000C31D0F810315B07FBD4D6E7002038BD8F
:102900000020005240EA02032DE9F74F8846D9061D
:102910000646914603D0002003B0BDE8F08F45463F
:10292000FFF738FF08EB09035B1B1F2B03D80120BF
:10293000FFF752FFF0E720223146284606F1200A31
:1029400001F0A2FC10B956462035EBE733461C686F
:10295000621CE0D104339A45F9D1FFF76BFC06F114
:102960007843214A214F9342214A224B88BF134684
:10297000A2F58272019398BF93461F4B98BF1F46E2
:1029800003F1F80388BF9B46FFF7F6FE3C6005F1B4
:102990001C0CDBF80020711B42F00202CBF8002077
:1029A0002A1F019B1C6814F00504FAD152F8043F59
:1029B00094458B50F5D1BFF34F8FFFF7DDFE4FF0FD
:1029C000FF323A60DBF8002022F00202CBF8002050
:1029D000FFF73AFC20222946304601F055FC00283A
:1029E000B1D02046A4E700BFFFFF0F001421005222
:1029F00010210052102000521420005210B5084C33
:102A0000237828B11BB9FFF7C5FE0123237010BD41
:102A1000002BFCD02070BDE81040FFF7DDBE00BFEA
:102A2000164E002002440439064BD2B210B5904233
:102A300000D110BD441C00B253F8200041F8040F2F
:102A4000E0B2F4E7504000580F4B30B51C6F24043F
:102A500005D41C6F1C671C6F44F400441C670B4CAE
:102A6000024404392368D2B243F480732360084BD4
:102A7000904200D130BD441C51F8045F00B243F8CD
:102A80002050E0B2F4E700BF00440258004802586A
:102A90005040005807B5012201A90020FFF7C2FFEE
:102AA000019803B05DF804FB13B50446FFF7F2FF8D
:102AB000A04206D002A90122002041F8044DFFF7F0
:102AC000C3FF02B010BD00000144BFF34F8F064B9F
:102AD000884204D3BFF34F8FBFF36F8F7047C3F8A3
:102AE0005C022030F4E700BF00ED00E0034B1A6801
:102AF00012B9034A12681A60704700BF184E0020CE
:102B0000D044025808B5FFF7F1FF024B1868C0F334
:102B1000806008BD184E0020EFF309830549683333
:102B20004A6822F001024A6083F30988002383F394
:102B30001188704730EF00E0202080F3118862B6E2
:102B40000D4B0E4AD96821F4E0610904090C0A43CF
:102B50000B49DA60CA6842F08072CA60094A0A49C1
:102B6000C2F8B01F116841F0010111601022DA773C
:102B700083F82200704700BF00ED00E00003FA0573
:102B8000F0ED00E0001000E055CEACC510B52023FC
:102B900083F311880E4B5B6813F4006314D0F1EEDD
:102BA000103AEFF309844FF08073683CE361094BFE
:102BB000DB68236684F30988FFF7ECFA10B1064B53
:102BC000A36110BD054BFBE783F31188F9E700BF54
:102BD00000ED00E030EF00E0F7030008FA03000822
:102BE000F0B5BFF34F8FBFF36F8F1D4B0021C3F8BC
:102BF0005012BFF34F8FBFF36F8F5A6942F4003208
:102C00005A61BFF34F8FBFF36F8FC3F88410BFF3C8
:102C10004F8FD3F8802043F6E076C2F3C904C2F3A5
:102C20004E32A507520102EA060C284621464CEA1C
:102C30000007013900F14040C3F860724F1CF6D123
:102C4000203A12F1200FEED1BFF34F8F5A6942F4B0
:102C500080325A61BFF34F8FBFF36F8FF0BD00BF5B
:102C600000ED00E0FEE70000084A094B09498B42ED
:102C700004D3094A0021934205D3704752F8040F48
:102C800043F8040BF3E743F8041BF4E76846000835
:102C9000EC4F0020EC4F0020EC4F0020704700006C
:102CA00070B5D0E9244300214FF0FF359E684A01FA
:102CB000A318D3F80009002805DAD3F8000940F07A
:102CC0008040C3F80009D3F8000B002805DAD3F8D8
:102CD000000B40F08040C3F8000B0131A3188E4276
:102CE000C3F80859C3F8085BE1D24FF00113C4F8E8
:102CF0001C3870BD00EB8103D3F80CC02DE9F04700
:102D0000DCF814204E1CD0F89050D2F800E005EB0F
:102D1000063605EB4118506870450AD30120D5F8F6
:102D2000343800FA01F123EA0101C5F83418BDE88E
:102D3000F087AEEB0003BCF81040A34228BF234647
:102D4000D8F81849A4B2B3EB840F10D894681F4682
:102D5000A4F1040959F804AF042FC6F800A001D962
:102D6000043FF7E71C44034494605360D3E700201A
:102D7000DDE70000890141F02001016103699B0644
:102D8000FCD41220FFF770BA10B50A4C2046FEF7AB
:102D9000C7FE094BC4F89030084BC4F89430084C77
:102DA0002046FEF7BDFE074BC4F89030064BC4F832
:102DB000943010BD1C4E002000000840B0440008B4
:102DC000B84E002000000440BC4400080378012BEA
:102DD00070B505465DD1494BD0F89040984259D125
:102DE000474B0E216520D3F8D82042F00062C3F88B
:102DF000D820D3F8002142F00062C3F80021D3F8B4
:102E00000021D3F8802042F00062C3F88020D3F87C
:102E1000802022F00062C3F88020D3F8803000F0D8
:102E20007FFC384BE360384BC4F800380023D5F8FA
:102E30009060C4F8003EC02323604FF40413A363E2
:102E40003369002BFCDA01230C203361FFF70CFA05
:102E50003369DB07FCD41220FFF706FA3369002B35
:102E6000FCDA00262846A660FFF71AFF6B68C4F854
:102E70001068DB68C4F81468C4F81C68002B3AD1E9
:102E8000224BA3614FF0FF336361A36843F001035A
:102E9000A36070BD1E4B9842C8D1194B0E214D2026
:102EA000D3F8D82042F00072C3F8D820D3F800211C
:102EB00042F00072C3F80021D3F80021D3F880203B
:102EC00042F00072C3F88020D3F8802022F0007214
:102ED000C3F88020D3F88020D3F8D82022F0806275
:102EE000C3F8D820D3F8002122F08062C3F8002173
:102EF000D3F8003193E7074BC3E700BF1C4E002017
:102F0000004402584014004003002002003C30C03E
:102F1000B84E0020083C30C0F8B5D0F890400546C7
:102F200000214FF000662046FFF724FFD5F89410EB
:102F300000234FF001128F684FF0FF30C4F834388F
:102F4000C4F81C2804EB431201339F42C2F8006905
:102F5000C2F8006BC2F80809C2F8080BF2D20B687D
:102F6000D5F89020C5F89830636210231361166974
:102F700016F01006FBD11220FFF776F9D4F80038CE
:102F800023F4FE63C4F80038A36943F4402343F0FC
:102F90001003A3610923C4F81038C4F814380B4B8C
:102FA000EB604FF0C043C4F8103B094BC4F8003B42
:102FB000C4F81069C4F80039D5F8983003F110024C
:102FC00043F48013C5F89820A362F8BD8C44000830
:102FD00040800010D0F8902090F88A10D2F8003885
:102FE00023F4FE6343EA0113C2F80038704700007F
:102FF0002DE9F8430EB20D4600EB8609D9F80C20F6
:10300000176807F00303022B58D0032B58D03F4F0B
:103010003F49012B18BF0F46D0F8904069014FF08F
:10302000000C6318C3F810CB05F110034FF0010C2E
:103030000CFA03FC9369002B44D0B2F812E005F1BE
:1030400058034EEA070E5B0144F803E0D4F81C383D
:1030500043EA0C03C4F81C38214400234FF0010854
:10306000C1F8103908FA05F85369691EBBB3138A11
:10307000928B9B08012A88BF5343D0F898209E1852
:1030800042EA034301F140022946C0F89860204615
:1030900004EB82025360FFF76DFED9F80C301B8AF7
:1030A00043EA855348351F436D016751D4F81C38F6
:1030B00043EA0803C4F81C38BDE8F883154FABE7B2
:1030C000154FA9E704EB461EDEF8003B23F400434E
:1030D000CEF8003BD4F81C3823EA0C03BAE705F11C
:1030E0003F030E4A04EB4616294604EB83032046B1
:1030F0005A60FFF73FFED6F8003923F40043C6F8C4
:103100000039D4F81C3823EA0803D3E70080041000
:10311000008000100080081000800C1000040002E5
:10312000D0F894201268C0F89820FFF7B9BD0000CD
:103130005831D0F8903049015B5813F4004004D066
:1031400013F4001F14BF0120022070474831D0F84B
:10315000903049015B5813F4004004D013F4001F71
:1031600014BF01200220704700EB8101CB68196A6F
:103170000B6813604B6853607047000000EB8103DD
:1031800030B5DD68AA691368D36019B9402B84BFD4
:10319000402313606B8A1468D0F890201C4402EB23
:1031A0004110013C09B2B4FBF3F46343033323F051
:1031B000030343EAC44343F0C043C0F8103B2B6809
:1031C00003F00303012B0ED1D2F8083802EB4110B3
:1031D00013F4807FD0F8003B14BF43F0805343F0DA
:1031E0000053C0F8003B02EB4112D2F8003B43F021
:1031F0000443C2F8003B30BD2DE9F041D0F89060A7
:1032000005460C4606EB4113D3F8087B3A07C3F892
:10321000087B08D5D6F814381B0704D500EB8103CA
:10322000DB685B689847FA071FD5D6F81438DB07C8
:103230001BD505EB8403D968CCB98B69488A5E68D5
:10324000B6FBF0F200FB12628AB91868DA689042A5
:103250000DD2121AC3E90024202383F311882146DA
:103260002846FFF78BFF84F31188BDE8F081012326
:1032700003FA04F26B8923EA02036B81CB68002B0B
:10328000F3D021462846BDE8F041184700EB810302
:103290004A0170B5DD68D0F890306C692668E66048
:1032A00056BB1A444FF40020C2F810092A6802F0F5
:1032B0000302012A0AB20ED1D3F8080803EB421424
:1032C00010F4807FD4F8000914BF40F0805040F023
:1032D0000050C4F8000903EB4212D2F8000940F094
:1032E0000440C2F800090122D3F8340802FA01F1BF
:1032F0000143C3F8341870BD19B9402E84BF402073
:10330000206020681A442E8A841940F00050013C45
:10331000B4FBF6F440EAC440C6E700002DE9F041F2
:10332000D0F8906004460D4606EB4113D3F80879B7
:10333000C3F80879FB071CD5D6F81038DA0718D57A
:1033400000EB8103D3F80CC0DCF81430D3F800E0B4
:10335000DA6896451BD2A2EB0E024FF000081A6005
:10336000C3F80480202383F31188FFF78FFF88F3CD
:1033700011883B0618D50123D6F83428AB401342F8
:1033800012D029462046BDE8F041FFF7B3BC012327
:1033900003FA01F2038923EA02030381DCF808300F
:1033A000002BE6D09847E4E7BDE8F0812DE9F0472F
:1033B000D0F8905004466E69AB691E40F1046E610E
:1033C00003D5BDE8F047FEF725BC002E12DAD5F88C
:1033D000003E9A0705D0D5F8003E23F00303C5F858
:1033E000003ED5F80438204623F00103C5F8043820
:1033F000FEF73EFC330505D52046FFF751FC20467D
:10340000FEF726FCB7040CD5D5F8083813F0060FE4
:10341000EB6823F470530CBF43F4105343F4A053F0
:10342000EB60300704D56368DB680BB12046984732
:10343000F10200F1A180B2020BD5D4F890800027F0
:103440004FF00109D4F89430F9B29B688B4280F0B8
:10345000D280F3061AD5D4F890100A6AC2F30A177C
:1034600002F00F0302F4F012B2F5802F00F0EB80AF
:10347000B2F5402F0AD104EB830301F58051DB68DC
:10348000186A00231A469F4240F0D1803003D5F8D5
:10349000185835D5E90303D500212046FFF7ACFEC7
:1034A000AA0303D501212046FFF7A6FE6B0303D52F
:1034B00002212046FFF7A0FE2F0303D5032120465B
:1034C000FFF79AFEE80203D504212046FFF794FE99
:1034D000A90203D505212046FFF78EFE6A0203D517
:1034E00006212046FFF788FE2B0203D50721204640
:1034F000FFF782FEEF0103D508212046FFF77CFE8F
:10350000700340F1C780E90703D500212046FFF78B
:1035100005FFAA0703D501212046FFF7FFFE6B0731
:1035200003D502212046FFF7F9FE2F0703D503211B
:103530002046FFF7F3FEEE0603D504212046FFF7F1
:10354000EDFEA80603D505212046FFF7E7FE690634
:1035500003D506212046FFF7E1FE2A0603D5072101
:103560002046FFF7DBFEEB0540F194802046082162
:10357000BDE8F047FFF7D2BED4F890904FF00008B6
:103580004FF0010AD4F894305FFA88F79B68BB4289
:10359000FFF451AF09EB4713D3F8002902F440229E
:1035A000B2F5802F24D1D3F80029002A20DAD3F8ED
:1035B000002942F09042C3F80029D3F80029002ADC
:1035C000FBDB3946D4F89000FFF7D4FB22890AFAD6
:1035D00007F322EA0303238104EB8703DB689B687C
:1035E00013B139462046984739462046FFF782FBFB
:1035F00008F10108C6E708EB4112D2F8003B03F4DA
:103600004023B3F5802F10D1D2F8003B002B0CDA09
:10361000628909FA01F322EA0303638104EB81035F
:10362000DB68DB680BB12046984701370AE713F0E7
:10363000030F00D10A68072B03F101039EBF02703C
:10364000120A01301FE704EB830301F58051DA68A9
:103650009069D0F808E0D0E90020A2EB000C00222D
:103660001046974208D1DB689B699A683A449A6091
:103670005A6817445F6009E712F0030F00D1086829
:10368000944502F1010282BF8EF80000000A0EF19B
:10369000010EE6E7BDE8F08708B50348FFF786FEB0
:1036A000BDE80840FFF772BA1C4E002008B5034879
:1036B000FFF77CFEBDE80840FFF768BAB84E00206F
:1036C000D0F8903003EB4111D1F8003B43F40013E4
:1036D000C1F8003B70470000D0F8903003EB411177
:1036E000D1F8003943F40013C1F8003970470000E5
:1036F000D0F8903003EB4111D1F8003B23F40013D4
:10370000C1F8003B70470000D0F8903003EB411146
:10371000D1F8003923F40013C1F8003970470000D4
:1037200000F1604300F01F020901400903F5614305
:10373000C9B2800083F80013012300F16040934078
:1037400000F56140C0F880310360704730B5043344
:10375000039C0172002104FB0325C160C0E90653EC
:10376000049B0363059BC0E90000C0E90422C0E993
:103770000842C0E90A11436330BD00000022416ADB
:10378000C260C0E90411C0E90A226FF00101FEF72E
:10379000DBBD0000D0E90432934201D1C2680AB90E
:1037A000181D704700207047036919600021C26826
:1037B0000132C260C269134482699342036124BF2B
:1037C000436A0361FEF7B4BD38B504460D46E368AD
:1037D0003BB162690020131D1268A3621344E362C7
:1037E00007E0237A33B929462046FEF791FD0028E9
:1037F000EDDA38BD6FF00100FBE70000C368C26975
:10380000013BC3604369134482699342436124BF0F
:10381000436A436100238362036B03B11847704717
:1038200070B52023044683F31188866A3EB9FFF7FA
:10383000CBFF054618B186F31188284670BDA36AF0
:10384000E26A13F8015B9342A36202D32046FFF7BA
:10385000D5FF002383F31188EFE700002DE9F84F2F
:1038600004460E4690469946202787F31188002586
:10387000AA46D4F828B0BBF1000F09D1494620462A
:10388000FFF7A2FF20B18BF311882846BDE8F88F1F
:10389000D4E90A13A8EB050B5B1A9B4528BF9B468E
:1038A000BBF1400F1BD9334601F1400251F8040B24
:1038B000914243F8040BF9D1A36A403640354033B6
:1038C000A362D4E90A239A4202D32046FFF796FF67
:1038D0008AF311884545D8D287F31188C9E7304665
:1038E0005A46FDF705FBA36A5E445D445B44A36250
:1038F000E7E7000010B5029C0433017204FB0321CA
:10390000C460C0E906130023C0E90A33039B0363C4
:10391000049BC0E90000C0E90422C0E908424363F7
:1039200010BD0000026A6FF00101C260426AC0E986
:1039300004220022C0E90A22FEF706BDD0E90423D2
:103940009A4201D1C26822B9184650F8043B0B6074
:103950007047002070470000C3680021C26901332E
:10396000C3604369134482699342436124BF436A3D
:103970004361FEF7DDBC000038B504460D46E36840
:103980003BB1236900201A1DA262E2691344E3627D
:1039900007E0237A33B929462046FEF7B9FC002810
:1039A000EDDA38BD6FF00100FBE700000369196034
:1039B000C268013AC260C2691344826993420361DA
:1039C00024BF436A036100238362036B03B118477A
:1039D0007047000070B5202304460E4683F311881B
:1039E000856A35B91146FFF7C7FF10B185F3118815
:1039F00070BDA36A1E70A36AE26A01339342A36298
:103A000004D3E16920460439FFF7D0FF002080F39A
:103A10001188EDE72DE9F84F04460D4691469A4688
:103A20004FF0200888F311880026B346A76A4FB9E3
:103A300051462046FFF7A0FF20B187F3118830469A
:103A4000BDE8F88FD4E90A07A9EB06033F1A9F42A5
:103A500028BF1F46402F1BD905F1400355F8042B02
:103A60009D4240F8042BF9D1A36A40364033A3624B
:103A7000D4E90A239A4204D3E16920460439FFF7C6
:103A800095FF8BF311884E45D9D288F31188CDE785
:103A900029463A46FDF72CFAA36A3D443E443B448E
:103AA000A362E5E7D0E904239A4217D1C3689BB12A
:103AB000836A8BB1043B9B1A0ED01360C368013B31
:103AC000C360C3691A4483699A42026124BF436A8E
:103AD0000361002383620123184670470023FBE73C
:103AE00000F0E4B8034B002258631A610222DA6046
:103AF000704700BF000C0040014B0022DA607047A5
:103B0000000C0040014B5863704700BF000C0040A0
:103B1000014B586A704700BF000C00404B6843607F
:103B20008B688360CB68C3600B6943614B69036238
:103B30008B6943620B6803607047000008B5374B20
:103B400040F2FF713648D3F888200A43C3F8882032
:103B5000D3F8882022F4FF6222F00702C3F88820FD
:103B6000D3F88820D3F8E0200A43C3F8E020D3F844
:103B700008210A43C3F808212A4AD3F8083111461C
:103B8000FFF7CCFF284802F11C01FFF7C7FF2748C9
:103B900002F13801FFF7C2FF254802F15401FFF797
:103BA000BDFF244802F17001FFF7B8FF224802F17F
:103BB0008C01FFF7B3FF214802F1A801FFF7AEFF28
:103BC0001F4802F1C401FFF7A9FF1E4802F1E001FE
:103BD000FFF7A4FF1C4802F1FC01FFF79FFF1B4801
:103BE00002F58C71FFF79AFF00F018F9184BD3F823
:103BF000902242F00102C3F89022D3F8942242F0BE
:103C00000102C3F894220522C3F898204FF06052B5
:103C1000C3F89C200F4AC3F8A02008BD00440258F6
:103C200000000258C8440008000402580008025866
:103C3000000C0258001002580014025800180258D4
:103C4000001C025800200258002402580028025884
:103C500000ED00E01F00080308B500F0F7FAFEF7DA
:103C6000C7FA0F4BD3F8DC2042F04002C3F8DC2047
:103C7000D3F8042122F04002C3F80421D3F8043120
:103C8000084B1A6842F008021A601A6842F00402EF
:103C90001A60FEF72BFFBDE80840FEF7CFBC00BF5F
:103CA000004402580018024870470000114BD3F836
:103CB000E82042F00802C3F8E820D3F8102142F0CF
:103CC0000802C3F810210C4AD3F81031D36B43F02B
:103CD0000803D363C722094B9A624FF0FF32DA62BE
:103CE00000229A615A63DA605A6001225A611A60AE
:103CF000704700BF004402580010005C000C0040F8
:103D0000094A08B51169D3680B40D9B29B076FEA1D
:103D10000101116107D5202383F31188FEF788FA8A
:103D2000002383F3118808BD000C00403A4B4FF08C
:103D3000FF31D3F8802062F00042C3F88020D3F82E
:103D4000802002F00042C3F88020D3F88020D3F80E
:103D50008420C3F88410D3F884200022C3F8842080
:103D6000D3F88400D86F40F0FF4040F4FF0040F4E7
:103D70003F5040F03F00D867D86F20F0FF4020F45C
:103D8000FF0020F43F5020F03F00D867D86FD3F8F1
:103D900088006FEA40506FEA5050C3F88800D3F8AB
:103DA0008800C0F30A00C3F88800D3F88800D3F86D
:103DB0009000C3F89010D3F89000C3F89020D3F887
:103DC0009000D3F89400C3F89410D3F89400C3F88B
:103DD0009420D3F89400D3F89800C3F89810D3F83F
:103DE0009800C3F89820D3F89800D3F88C00C3F853
:103DF0008C10D3F88C00C3F88C20D3F88C00D3F847
:103E00009C00C3F89C10D3F89C10C3F89C20D3F8F6
:103E10009C3000F0E7B900BF00440258614B01221A
:103E20001A60614BD3F8F42042F00202C3F8F42088
:103E3000D3F81C2142F00202C3F81C210222D3F85D
:103E40001C315A4BDA605A689104FCD5584A1A6002
:103E500001229A60574ADA6000221A614FF4404208
:103E60009A61524B9A699204FCD51A6842F48072A6
:103E70001A604D4B1A6F12F4407F04D04FF4803219
:103E80001A6700221A671A6842F001021A60464A4D
:103E9000134611684807FCD5002111611A6912F018
:103EA0003802FBD1012119604FF0804159605A67F7
:103EB000414ADA62414A1A611A6842F480321A6051
:103EC000394A134611688903FCD5116841F48051C1
:103ED00011601A689204FCD5394A3A499A62002264
:103EE0005A6319633849DA6399635A64374A1A6422
:103EF000374ADA621A6842F0A8521A602A4B1A68E6
:103F000002F02852B2F1285FF9D148229A614FF4A9
:103F10008862DA6140221A622E4ADA644FF08052D7
:103F20001A652D4A5A652D4A9A6532222C4B1A6021
:103F30001A6802F00F02022AFAD11B4B1A6942F0EA
:103F400003021A611A6902F03802182AFAD1D3F86A
:103F5000DC2042F00052C3F8DC20D3F8042142F008
:103F60000052C3F80421D3F80421D3F8DC2042F036
:103F70008042C3F8DC20D3F8042142F08042C3F829
:103F80000421D3F80421D3F8DC2042F00042C3F826
:103F9000DC20D3F8042142F00042C3F80421D3F816
:103FA000043170470881005100440258004802580B
:103FB00000C000F0020000010000FF01008890082E
:103FC00032206000630209011D0204004704050855
:103FD000FD0BFF01200000200010E00000010100A7
:103FE000002000524FF0B04208B5D2F8883003F0FC
:103FF0000103C2F8883023B1044A13680BB150683A
:104000009847BDE80840FEF7C1BD00BF6C4F0020D7
:104010004FF0B04208B5D2F8883003F00203C2F87E
:10402000883023B1044A93680BB1D0689847BDE843
:104030000840FEF7ABBD00BF6C4F00204FF0B04210
:1040400008B5D2F8883003F00403C2F8883023B1F1
:10405000044A13690BB150699847BDE80840FEF760
:1040600095BD00BF6C4F00204FF0B04208B5D2F8AC
:10407000883003F00803C2F8883023B1044A9369FA
:104080000BB1D0699847BDE80840FEF77FBD00BF7F
:104090006C4F00204FF0B04208B5D2F8883003F0E2
:1040A0001003C2F8883023B1044A136A0BB1506A76
:1040B0009847BDE80840FEF769BD00BF6C4F00207F
:1040C0004FF0B04310B5D3F8884004F47872C3F8C9
:1040D0008820A30604D5124A936A0BB1D06A984788
:1040E000600604D50E4A136B0BB1506B984721063E
:1040F00004D50B4A936B0BB1D06B9847E20504D5FE
:10410000074A136C0BB1506C9847A30504D5044AB9
:10411000936C0BB1D06C9847BDE81040FEF736BDEC
:104120006C4F00204FF0B04310B5D3F8884004F432
:104130007C42C3F88820620504D5164A136D0BB182
:10414000506D9847230504D5124A936D0BB1D06D7D
:104150009847E00404D50F4A136E0BB1506E984790
:10416000A10404D50B4A936E0BB1D06E984762043C
:1041700004D5084A136F0BB1506F9847230404D538
:10418000044A936F0BB1D06F9847BDE81040FEF71B
:10419000FDBC00BF6C4F002008B50348FDF7CEF80A
:1041A000BDE80840FEF7F2BCE023002008B5034854
:1041B000FDF7C4F8BDE80840FEF7E8BC4C24002039
:1041C00008B50348FDF7BAF8BDE80840FEF7DEBCC5
:1041D000B824002008B5FFF793FDBDE80840FEF7BE
:1041E000D5BC0000062108B50846FFF799FA06215C
:1041F0000720FFF795FA06210820FFF791FA06211C
:104200000920FFF78DFA06210A20FFF789FA062117
:104210001720FFF785FA06212820FFF781FA0921E8
:104220007A20FFF77DFA07213220FFF779FA0C2177
:104230002620FFF775FA0C212720FFF771FA0C21D1
:104240005220BDE80840FFF76BBA000008B5FFF741
:104250006DFD00F00DF8FDF78BFAFDF75FFCFDF743
:1042600035FBFFF721FDBDE80840FFF739BC000032
:10427000002304491A465A50C81808334260802B5C
:10428000F9D170476C4F002030B50024A24201D113
:10429000002007E0035D01340D1915F8015CAB4205
:1042A000F4D0581B30BD0000034611F8012B03F871
:1042B000012B002AF9D170471210121312110000BD
:1042C00001105A0003105900012058000320560025
:1042D00053544D333248373F3F3F0053544D3332F0
:1042E000483734332F373533000000000096000084
:1042F00000000000000000000000000000000000BE
:104300000000000000000000391700082517000811
:10431000611700084D1700085917000845170008D5
:10432000311700081D1700086D1700080000000075
:1043300045180008311800086D18000859180008C1
:1043400065180008511800083D18000829180008D1
:10435000C918000800000000010000000000000073
:104360006D61696E00000000804300086831002024
:10437000E032002001000000ED21000800000000F4
:1043800069646C650000000002000000000000008D
:10439000651A0008D11A000840004000884B002030
:1043A000984B002002000000000000000300000005
:1043B00000000000191B00080000000010000000B1
:1043C000A84B0020000000000100000000000000D9
:1043D0001C4E0020010102005044524C0041672B4A
:1043E0002B202D424C002553455249414C250000BD
:1043F000DD250008F52400088D250008712500083A
:10440000430000000844000809024300020100C004
:104410003209040000010202010005240010010518
:10442000240100010424020205240600010705827C
:10443000030800FF09040100020A0000000705014B
:104440000240000007058102400000001200000049
:1044500054440008120110010200004009128304B4
:1044600000020102030100000403090425424F4138
:104470005244250041672B2B00303132333435361E
:1044800037383941424344454600000000000000EF
:10449000851C0008591F0008052000084000400046
:1044A000544F0020544F002001000000644F0020B2
:1044B0008000000040010000080000000001000032
:1044C00000040000080000000000802A0000000036
:1044D000AAAAAAAA00000024FFFF00000000000012
:1044E00000A00A004000000008000000AAAAAAAA32
:1044F00000000000FFFF00000000000000000000BE
:104500001000001400000000AAAAAAAA10000014BB
:10451000FFFF0000000000000000000010681A000B
:1045200000000000AAAAAAAA10541500FFFF00006C
:1045300000007007770000000081020100100000F9
:10454000AAAAAAAA00410100FFFF00000000007013
:10455000070000000000000000000000AAAAAAAAAC
:1045600000000000FFFF000000000000000000004D
:104570000000000000000000AAAAAAAA0000000093
:10458000FFFF00000000000000000000000000002D
:1045900000000000AAAAAAAA00000000FFFF000075
:1045A000000000000000000000000000000000000B
:1045B000AAAAAAAA00000000FFFF00000000000055
:1045C000000000000000000000000000AAAAAAAA43
:1045D00000000000FFFF00000000000000000000DD
:1045E0000000000000000000AAAAAAAA0000000023
:1045F000FFFF0000000000000000000000000000BD
:10460000405700000000000000001E0000000000F5
:10461000FF000000E0320020E02300204C240020B6
:10462000B824002000000000D04200083F00000035
:1046300050040000DB4200083F000000009600002C
:1046400000000800960000000008000004000000C0
:1046500068440008000000000000000000000000A6
:0C4660000000000000000000000000004E
:00000001FF
